:020000040000fa
:080000000002040000000000f2
:020000040000fa
:04000800ca05000025
:020000040000fa
:04000c00ca05000021
:020000040000fa
:04001000ca0500001d
:020000040000fa
:04001400ca05000019
:020000040000fa
:04001800ca05000015
:020000040000fa
:04001c00ca05000011
:020000040000fa
:04002000ca0500000d
:020000040000fa
:04002400ca05000009
:020000040000fa
:04002800ca05000005
:020000040000fa
:04002c00ca05000001
:020000040000fa
:04003000ca050000fd
:020000040000fa
:04003400ca050000f9
:020000040000fa
:04003800ca050000f5
:020000040000fa
:04003c00ca050000f1
:020000040000fa
:04004000ca050000ed
:020000040000fa
:04004400ca050000e9
:020000040000fa
:04004800ca050000e5
:020000040000fa
:04004c00ca050000e1
:020000040000fa
:04005000ca050000dd
:020000040000fa
:040054002a0300007b
:020000040000fa
:04005800ca050000d5
:020000040000fa
:04005c00ca050000d1
:020000040000fa
:04006000ca050000cd
:020000040000fa
:04006400ca050000c9
:020000040000fa
:04006800ca050000c5
:020000040000fa
:04006c00ca050000c1
:020000040000fa
:04007000ca050000bd
:020000040000fa
:04007400c0030000c5
:020000040000fa
:04007800ca050000b5
:020000040000fa
:04007c00ca050000b1
:020000040000fa
:04008000ca050000ad
:020000040000fa
:04008400ca050000a9
:020000040000fa
:04008800ca050000a5
:020000040000fa
:04008c00ca050000a1
:020000040000fa
:04009000ca0500009d
:020000040000fa
:04009400ca05000099
:020000040000fa
:04009800ca05000095
:020000040000fa
:04009c00ca05000091
:020000040000fa
:0400a000ca0500008d
:020000040000fa
:0400a400ca05000089
:020000040000fa
:0400a800ca05000085
:020000040000fa
:0400ac00ca05000081
:020000040000fa
:0400b000ca0500007d
:020000040000fa
:0400b400ca05000079
:020000040000fa
:0400b800ca05000075
:020000040000fa
:0400bc00ca05000071
:020000040000fa
:0400c000ca0500006d
:020000040000fa
:0400c400ca05000069
:020000040000fa
:0400c800ca05000065
:020000040000fa
:0400cc00ca05000061
:020000040000fa
:0400d000ca0500005d
:020000040000fa
:0400d400ca05000059
:020000040000fa
:0400d800ca05000055
:020000040000fa
:0400dc00ca05000051
:020000040000fa
:0400e000ca0500004d
:020000040000fa
:0400e400fa0200001c
:020000040000fa
:0400e800ca05000045
:020000040000fa
:0400ec00ca05000041
:020000040000fa
:0400f000ca0500003d
:020000040000fa
:0400f400ca0400003a
:020000040000fa
:0400f80012040000ee
:020000040000fa
:0400fc00ca05000031
:020000040000fa
:04010000ca0500002c
:020000040000fa
:04010400ca05000028
:020000040000fa
:04010800ca05000024
:020000040000fa
:04010c00ca05000020
:020000040000fa
:04011000ca0500001c
:020000040000fa
:04011400ca05000018
:020000040000fa
:04011800ca05000014
:020000040000fa
:04011c00ca05000010
:020000040000fa
:04012000ca0500000c
:020000040000fa
:04012400ca05000008
:020000040000fa
:04012800ca05000004
:020000040000fa
:04012c00ca05000000
:020000040000fa
:04013000ca050000fc
:020000040000fa
:04013400ca050000f8
:020000040000fa
:04013800ca050000f4
:020000040000fa
:04013c00ca050000f0
:020000040000fa
:04014000ca050000ec
:020000040000fa
:04014400ca050000e8
:020000040000fa
:04014800ca050000e4
:020000040000fa
:04014c00ca050000e0
:020000040000fa
:04015000ca050000dc
:020000040000fa
:04015400ca050000d8
:020000040000fa
:04015800ca050000d4
:020000040000fa
:04015c00ca050000d0
:020000040000fa
:04016000ca050000cc
:020000040000fa
:04016400ca050000c8
:020000040000fa
:04016800ca050000c4
:020000040000fa
:04016c00ca050000c0
:020000040000fa
:04017000ca050000bc
:020000040000fa
:04017400ca050000b8
:020000040000fa
:04017800ca050000b4
:020000040000fa
:04017c00ca050000b0
:020000040000fa
:04018000ca050000ac
:020000040000fa
:04018400ca050000a8
:020000040000fa
:04018800ca050000a4
:020000040000fa
:04018c00ca050000a0
:020000040000fa
:04019000ca0500009c
:020000040000fa
:04019400ca05000098
:020000040000fa
:04019800ca05000094
:020000040000fa
:04019c00ca05000090
:020000040000fa
:0401a000ca0500008c
:020000040000fa
:0401a400ca05000088
:020000040000fa
:0401a800ca05000084
:020000040000fa
:0401ac00ca05000080
:020000040000fa
:0401b000ca0500007c
:020000040000fa
:0401b400ca05000078
:020000040000fa
:0401b800ca05000074
:020000040000fa
:0401bc00ca05000070
:020000040000fa
:0401c000ca0500006c
:020000040000fa
:0401c400ca05000068
:020000040000fa
:0401c800ca05000064
:020000040000fa
:0401cc00ca05000060
:020000040000fa
:0401d000ca0500005c
:020000040000fa
:0401d400ca05000058
:020000040000fa
:0401d800ca05000054
:020000040000fa
:0401dc00ca05000050
:020000040000fa
:0401e000ca0500004c
:020000040000fa
:0401e400ca05000048
:020000040000fa
:0401e800ca05000044
:020000040000fa
:0401ec00ca05000040
:020000040000fa
:0401f000ca0500003c
:020000040000fa
:0401f400ca05000038
:020000040000fa
:0401f800ca05000034
:020000040000fa
:0401fc00ca05000030
:020000040000fa
:04020000ca0500002b
:020000040000fa
:04020400ca05000027
:020000040000fa
:04020800ca05000023
:020000040000fa
:04020c00ca0500001f
:020000040000fa
:04021000ca0500001b
:020000040000fa
:04021400ca05000017
:020000040000fa
:04021800ca05000013
:020000040000fa
:04021c00ca0500000f
:020000040000fa
:04022000ca0500000b
:020000040000fa
:04022400ca05000007
:020000040000fa
:04022800ca05000003
:020000040000fa
:04022c00ca050000ff
:020000040000fa
:04023000ca050000fb
:020000040000fa
:04023400ca050000f7
:020000040000fa
:04023800ca050000f3
:020000040000fa
:04023c00ca050000ef
:020000040000fa
:04024000ca050000eb
:020000040000fa
:04024400ca050000e7
:020000040000fa
:04024800ca050000e3
:020000040000fa
:04024c00ca050000df
:020000040000fa
:04025000ca050000db
:020000040000fa
:04025400ca050000d7
:020000040000fa
:04025800ca050000d3
:020000040000fa
:04025c00ca050000cf
:020000040000fa
:04026000ca050000cb
:020000040000fa
:04026400ca050000c7
:020000040000fa
:100400002f3023000eff27000e018800000000009f
:10041000000020000000e000020032000001200087
:100420002002880014000700dc0107000000e00043
:1004300003003a00801b2700010020000200370063
:100440000000200001002000810f70000100320038
:100450000f000700000020000000e0000200320052
:1004600000000200000000006c71020000000000ab
:100470000040da000000fe00a02620000000e0009e
:1004800002003200002020009001880000000600d9
:10049000a1028800800478000000eb001f003700f4
:1004a000e284440054a0b4009905ba00e2844400f8
:1004b00054a0b4009906ba00e284440054a0b400e9
:1004c0000006eb00476fde00fd07b200ae018800ba
:1004d000636ce10003003a000ad801000000eb0061
:1004e0000e003700606ce10008003a00004deb00a0
:1004f0000a05e800020039003420ec000af0a000f0
:100500008b05e900f9ff3e00040037006168e10057
:10051000010032000086eb000b00070019c7ba008b
:100520000e04e0001905ba0003003a000a00e000da
:10053000dbff3a0000000600fe07b200ae028800b2
:100540008a047800f5ff37000cd0a300e20f4d00bd
:100550001c00390089027800354dba000a05e80010
:10056000020039003420ec000af0a0008b05e900fd
:100570000f003200254dba000a05e80002003900dc
:100580003420ec000af0a0008b05e90008003200de
:100590000c00e0000600320015cdba000a05e800a4
:1005a000020039003420ec000af0a0008b05e900bd
:1005b0008984e80054a0b4000b00e000e2ff3a0098
:1005c000000006009902ba00055d78008b05e9007d
:1005d000f7ff3200c82ade00055d78008b05e900d0
:1005e000f3ff32000c00e000f1ff320019ddba0029
:1005f000eeff3700801f78003200f8003400f8006a
:1006000010002000a0018800002020009001880038
:10061000000000000000fa00908380000000e80065
:1006200090838800908380000000e00003003a007f
:10063000a08380000000e800a083880005e8a900ee
:100640000080fa003400f9003200f9004f00780011
:10065000004006003600f800809fbe00829fbe006a
:10066000849fbe00869fbe003200f8003400f80070
:1006700010002000a00188000020200090018800c8
:10068000000000000200fa000000eb004d18070017
:10069000004f78001e4078008217070046d0bf0048
:1006a000e14f500025003a00f0c3b3009e407800af
:1006b00080cf5000280032003a70ef00a0c3b30092
:1006c0009e40780080cf500019003a0037d0bf001c
:1006d0000040e80037f0b70037d0bf00e34f5000cc
:1006e0001d003a003770ef0010c0b30087290700e3
:1006f00060c0b30085290700d100200050cc28003d
:10070000d02c07000040eb0080290700a0ceb300ea
:100710007e290700f0c4b3007c29070040c0b30065
:100720007a2907004670ef00b21707000a00370069
:100730003770ef004670ef00070037001e4078006a
:10074000fb4f500004003a003a70ef003770ef00a2
:1007500010c0b30046f0b7000168a9000080fa009d
:100760003400f9003200f9004f03be004f02be0012
:100770004f01be004f00be003600f90000400600e9
:10078000809fbe003200f8003400f8001000200006
:10079000a0018800002020009001880000000000d7
:1007a0000200fa00907080004b00de00004f7800dd
:1007b0009e00fb0040d0bf000080fb00008068006e
:1007c00061006000004078000004e0000300320097
:1007d000e08180000000e800e08188009e00fb00ce
:1007e00040d0bf000080fb00008068006200600015
:1007f0000000e00003003200f08180000000e8000b
:10080000f08188001e40780040f0b7000268a9001f
:100810000080fa003400f9003200f9004f00be00f9
:10082000004006003600f800809fbe00829fbe0098
:10083000849fbe00869fbe003200f8003400f8009e
:1008400010002000a00188000020200090018800f6
:10085000000000000400fa0039d0bf000004e000ee
:1008600021003a0010828000e10f50003f00360066
:10087000108280000000e9001082880045d0bf008f
:10088000f04f500010003a00501607002047980023
:100890004e160700000f78001e0078004800dd00ab
:1008a000000f78002e4090000080fb001e0f4000db
:1008b000000028001e0f40001e0078004500de00ea
:1008c000000f78000500370040160700000f780081
:1008d0001e0078004300dd00000f78001e00780045
:1008e000e60f070021003700432a0700000f7800b9
:1008f00045d0bf00f04f500011003a001e007800b4
:100900004400dd00000f7800000028001e0f4000aa
:100910001e0078004800de00004078000e16070038
:100920000080fb00000f78001e0078000040780077
:10093000091607000080fb00000f78000800370050
:100940001e0078004400de00000f78001e007800d2
:1009500000407800001607000080fb00000f7800c0
:10096000108280000000e800108288000688a9003c
:100970000080fa003400f9003200f9004f03be0095
:100980004f02be004f01be004f00be003600f9000e
:10099000004006003600f800809fbe00829fbe0027
:1009a000849fbe00869fbe00889fbe003200f80074
:1009b0003400f80010002000a00188000020200072
:1009c00090018800000000000c00fa003bd0bf003e
:1009d0000004e0006400320035d0bf000004e000f5
:1009e00061003200e08180008000eb009901070087
:1009f0000004be003bd0bf000080fb008000eb0085
:100a0000940107000001be000800be002701070096
:100a10002007980031079800f08180008000eb00eb
:100a20008c0107000004be0035d0bf000080fb0031
:100a30008000eb00870107000001be000800be0037
:100a40001a010700400798005107980038d0bf00ee
:100a50000004e000050032003bd0bf000080fb0036
:100a60000000ea00000f7800030037003bd0bf0011
:100a70000080fb00000f7800020020000312240019
:100a80004e009000de0090004600070018c0b30042
:100a90002e019000be019000460107000000e0001a
:100aa000010035000044eb000804e00011003200b2
:100ab00036d0bf000004e0000600320035d0bf0091
:100ac0000080fb00e1ff2f0000805000100798001d
:100ad0000400370035d0bf000080fb000080e80034
:100ae000100798009e0090001e007800702c0700f0
:100af0001d00370002002000031224004e00900069
:100b0000de0090002600070018c0b3002e01900000
:100b1000be019000290107000000e00001003c0038
:100b20000044eb000804e0000f00320036d0bf00a4
:100b30000004e0000500320035d0bf000080fb005b
:100b400062001000100798000400370035d0bf0085
:100b50000080fb000080e900100798009e009000d4
:100b60001e007800522c07000688a9000080fa00b9
:100b70003400f9003200f9004f04be004f03be00fc
:100b80004f02be004f01be004f00be003600f9000c
:100b9000004006000040da000000fe0000000500f2
:100ba00003f0a200889fbe008a9fbe008c1f7800c1
:100bb0006d010700740133006450e1004f00320002
:100bc0006420e1005200320003826c0007003b0009
:100bd0000905d0000306d000820f54000c065d000a
:100be0000200390002003200890178000306780013
:100bf0008582550004003d000003fd008103fd00d7
:100c00008502ea008b854200840f720002003b00df
:100c100060001000e08018006011b8000005eb00d3
:100c20007a28e1000a00390006007800c75ddd007f
:100c3000f707b200878075002d00370082817100b0
:100c40000a017800610560008180d1000080d30036
:100c50008502e900f9ff3b00060440008784480054
:100c600002003b0060041400e0841c000988a3001b
:100c7000070032008a817100828171006101640085
:100c80008904d1000884d3008b05e80017003700e1
:100c90000978a30013003a000b00e00013003400b1
:100ca0008b05e9000804440089844c000a44740060
:100cb0000978a3000d003a000b00e00007003400a3
:100cc0008b05e9000804440089844c0001003a00c7
:100cd0000b0020000978a300f7ff32000001eb00b1
:100ce00002003700828171000a017800e3000700ea
:100cf0000cf0a70001f0a0002c0137006420e100f7
:100d000002003a00838f6c002c0133000801be0002
:100d10000200be0025013700889fbe008a9fbe00ea
:100d20008c9fbe000004be00fa0007000800be0051
:100d3000890678006420e1000800390004003200d0
:100d40000160a00012022000d28588005300370005
:100d500091fc2300b0fd20004e0037000006eb00a0
:100d600009f0a10003f82300020020000800be00e3
:100d7000900007000600340001f823000000200066
:100d80000801be00490007000004be002c0020003e
:100d90000800be0093e82300320a23008500070004
:100da000120034000801be00d1fd2300703d2b006d
:100db0007cff07000005be00b3f32300f27a260093
:100dc0000800be000001070003f823000200200015
:100dd00073ff07000801be0072ff07000a01be0092
:100de000320007000004be000c06e8000800be0048
:100df00001f0a10002002000039823006d0007000d
:100e00000800be00160035000801be00ee00070015
:100e10000005be0032cd2c0043fb230061ff07001c
:100e2000809fbe001269280003d52b000a00be0077
:100e3000e5000700620f210013ef2b0059ff0700a8
:100e40000a01be00e00007004f01be0017000700c6
:100e50000801be00dc0007000801be0051ff0700ca
:100e60000c00e0000b0032000c10a70001f0a20003
:100e7000b2fd200093fc23006260e1000400320018
:100e800022a9200063f023000c10a70063f82300c0
:100e900044ff07000df0a70001f0a2004f06be00be
:100ea0004f05be004f04be0000000600889fbe0034
:100eb0008a9fbe008c1f7800ab000700b200330091
:100ec00003866c006450e1002e0032006420e100d3
:100ed000330032006150e1002f0032006120e10058
:100ee0003100320085855500eb07b0000900200075
:100ef00008042000050037000804440089844c00e1
:100f00000a0031000603430087834b0000015300b1
:100f100081815b00f8ff33000203be000800a000df
:100f20000804440089844c00f6ff3900c639dd000e
:100f30008301730001003200130020008904d100f6
:100f40000884d3000998a300050032000800a70018
:100f50000300a0008904d1000884d3008b05e800b9
:100f60008904d1000884d3000001eb000281d20083
:100f70004200070001f0a1000cf0a70001f0a00062
:100f80008a0037006420e1008c0032000801be00b6
:100f90000200be00f7ff37006120e1008700320049
:100fa0006000b800f3ff37000000200001f82700c0
:100fb000f0ff370014002000ee003700f4ff2f0090
:100fc000ec0037000001be00520007000470a700cb
:100fd00003f0a1006509b100160032000d003500d4
:100fe0006828e10006003500f0ff2f00f1ff270020
:100ff0000300e00013003b00010028000000050092
:1010000000004000818048008502e900fcff3a00b2
:1010100008003700f88f420002003c008000eb001f
:10102000000005008100d1000080d3008502e800a7
:10103000fcff3a000300e00002003b0060001000eb
:10104000e0801800000006004f89de008201780071
:10105000e30037006011b800f10037000001eb0039
:101060009d000700040032000200200003f8230066
:1010700001f0a700cafe0700000006008100200062
:10108000618055000b003d000b00200061fe2f0029
:101090000100e1001d0034008281710061016400e3
:1010a0008904d1000884d3000000e800faff3a0068
:1010b0007100200061006400030070000200600005
:1010c0000900320061044400e0844c000988a50056
:1010d000050032008b05e8006808e10002003a00d4
:1010e0008904d1000884d300f20f20000258e100e7
:1010f00005003d00c75ddd00f907b200898075007d
:1011000008007800000006000bf827008b0078002c
:1011100000000500c70ade00f107b200f50fb200bb
:1011200008003200e1cf4200020032000170a0004e
:1011300024000500810f7000010032000408050042
:1011400044000500810f700002003a001400050001
:101150008502e9000000400081c04800fcff3b0020
:101160000170a000240005000004be00e9ff070094
:101170000003be000405be000200be00e5ff07003c
:10118000844f7500000006000200be006450e100bc
:10119000050036006420e100020036000968a30063
:1011a00001003a000800be000160a0004f06780070
:1011b0004f05be004f04be0000000600f0ff2f00e8
:1011c000f1ff2700f9ff3700889fbe008a9fbe000d
:1011d0008c1f7800e4ff0700ebff330003866c00f0
:1011e0006450e100240032006420e1002700320056
:1011f0006150e100220032006120e1002100320054
:101200008b854200eb07b1000134b800003ab8000a
:101210000804420089844a00013ab8000030b8004e
:101220008880400009014a000400330000004000ab
:1012300081804800020149008b05e900c909dd00f1
:10124000830170000100320013002000c814de008a
:101250004814dd004709de001200b200c808de00b5
:101260000884700085ff070001f0a1000cf0a700c2
:1012700001f0a000cdff37006120e100cfff320078
:101280000801be000200be00f7ff37006150e10018
:10129000fcff3a00c9ff37006022b80006022000b8
:1012a0000000d0008180d2000482d2008582d2006a
:1012b0000000a0000202520083825a0003003100a5
:1012c0000202420083824a000000a1000603e900f6
:1012d000f3ff3a0000000600889fbe008a9fbe0010
:1012e0000003be008bff0700850578008281520055
:1012f000020020006220e10004003a00f307b10080
:10130000040035007718e100040035000600be0037
:10131000140037006000b8000f003700f50f200000
:10132000faff2f008502d1000a85d3008301e9006e
:10133000fcff3b008184620000046500890f74009b
:10134000f2ff32008582ea000a85ea0081846200a9
:101350000004650049ff070007f0a70001f0a000a6
:101360000081eb000200e0004f05be004f04be000c
:1013700000000600889fbe008a9fbe00841f780080
:1013800079ff07004f00780011003300f0ff2f00b5
:10139000838f6c0006003b00040565000a00a7006f
:1013a0000800370009f0a6001000200008003700f0
:1013b000820f5400838f5c0003003900100020006e
:1013c00001003e000000200009f0a7000000ea0034
:1013d0004f05be004f04be000000e0000000060004
:1013e000881f7800030478000300e00007003d0038
:1013f00060001000e080180060011900e081190011
:1014000002003b0001f02d0003003700040007003c
:1014100008f0a70001f0a0004f04780000000600cb
:10142000889fbe008a9fbe00008270000402710087
:1014300004827100260032000004be000200be00db
:101440006011b8006b092000950220000182cf00d6
:101450000a0039000541b1000082cf0007003900c1
:101460000541b1000982cf00040039000541b100f7
:101470000882cf00010039000541b1000542520049
:10148000120032000a003b00828171006101640099
:101490008100d1000080d3008984d3000884d30068
:1014a0008b05e8000442e800f7ff3a000700370028
:1014b0000804440089844c000000480081804800f2
:1014c0008b05e9000442e900f9ff3a00ebfe070052
:0c14d0004f05be004f04be0000000600e7
:020000040000fa
:1014dc00000000000000000000000000065f00009b
:1014ec0006000000070300000007000003240000b2
:1014fc007e2400007e240000242b00006a120000d1
:10150c00006300001308000064630000364900000b
:10151c0056200000500000000703000000000000ef
:10152c00003e00004100000000000000413e0000b1
:10153c0000000000083e00001c3e000008080000ef
:10154c00083e00000808000000e0000060000000f9
:10155c0000080000080800000808000000600000f7
:10156c0060000000002000001008000004020000d1
:10157c003e510000494500003e000000427f000043
:10158c004000000062510000494900004622000062
:10159c00494900004936000018140000127f000071
:1015ac001027000045450000453900003c4a00006a
:1015bc0049490000300100007109000005030000da
:1015cc003649000049490000360600004949000030
:1015dc00291e0000006c00006c00000000000000e0
:1015ec00ec6c000000000000081400002241000018
:1015fc0000240000242400002424000000410000ea
:10160c002214000008020000015900000906000025
:10161c003e4100005d5500001e7e000009090000df
:10162c00097e00007f49000049490000363e000059
:10163c0041410000412200007f4100004141000077
:10164c003e7f000049490000494100007f0900002d
:10165c0009090000013e000041490000497a0000e0
:10166c007f080000080800007f000000417f000098
:10167c004100000030400000404000003f7f00006f
:10168c0008140000224100007f4000004040000090
:10169c00407f000002040000027f00007f02000077
:1016ac00040800007f3e000041410000413e000064
:1016bc007f09000009090000063e000041510000ae
:1016cc00215e00007f090000091900006626000059
:1016dc004949000049320000010100007f0100006f
:1016ec00013f000040400000403f00001f20000070
:1016fc00402000001f3f0000403c0000403f000025
:10170c006314000008140000630700000870000058
:10171c00080700007149000045430000000000006c
:10172c007f4100004100000002040000081000008e
:10173c0020000000414100007f0000000402000076
:10174c000102000004800000808000008080000006
:10175c0000030000070000000020000054540000ab
:10176c00547800007f4400004444000038380000e6
:10177c004444000044280000384400004444000065
:10178c007f3800005454000054180000087e0000fc
:10179c000909000000180000a4a40000a47c0000ab
:1017ac007f0400000478000000000000007d0000b1
:1017bc000000000040800000847d0000007f0000dd
:1017cc001028000044000000000000007f400000d2
:1017dc00007c000004180000047800007c04000069
:1017ec000478000000380000444400004438000035
:1017fc00fc4400004444000038380000444400001d
:10180c0044fc000044780000440400000808000078
:10181c005454000054200000043e000044240000f6
:10182c00003c0000402000007c0000001c20000058
:10183c00402000001c3c000060300000603c0000b8
:10184c006c100000106c0000009c0000a0600000f8
:10185c003c00000064540000544c000000080000e0
:10186c003e41000041000000000000007f0000002d
:10187c0000000000414100003e0800000201000091
:10188c000201000000310000333a0000353800003e
:10189c003a35000036000000313200002f300000d5
:1018ac00372f0000313700000021000042410000ba
:1018bc0054540000204c00004f5700002100000041
:1018cc00506c000065610000736500002052000040
:1018dc00656300006861000072670000650000002d
:1018ec004368000061720000676500003a20000048
:1018fc00200000004261000074740000657200005a
:10190c00793a000020000000252000002000000093
:10191c00004600006f7200006d7500006c610000e5
:10192c00204100006c6c0000436f000064650000f7
:10193c000057000061690000746900006e670000c8
:10194c00204600006f7200002053000077690000f1
:10195c0074630000680000002020000020200000bc
:10196c00202000002020000020200000202000006b
:10197c002020000020200000202000000046000055
:10198c0041200000436f00006e6e00006563000094
:10199c007465000064000000486500006c6c000079
:0419ac006f000000c8
:020000040000fa
:1019b0000600fa00000f780011079800220798002f
:1019c0001e007800900078001e0090000080ea0061
:1019d000808060002e0190001e00900000006100d9
:1019e000810070001e007800010878000080fa0075
:1019f000000006000800fa00000f780011079800a8
:101a000022079800330798001e009000900078008d
:101a10002e0090000080ea00808060001e00900090
:101a2000010878001e007800900078002e009000d9
:101a30000080ea00808060003e0190002e0090004f
:101a400000006100810070001e007800010878002d
:101a50000080fa00000006000600fa00000f78007f
:101a600011079800424798001e0078009000780007
:101a70001e009000808060004e4090000080fb00bf
:101a80000008de000080fa00000006000800fa00ee
:101a9000000f78001107980022079800634798000c
:101aa0001e009000900078002e00900081007000d1
:101ab0001e009000010878001e0078009000780059
:101ac0002e009000808060006e4090000080fb003f
:101ad0000008de000080fa00000006000600fa00a0
:101ae000404798000040eb00004f78000d003700a1
:101af0000000eb00100798000500370010c0b3008d
:101b00000e0007001e0090000000e800100798007b
:101b10009e009000603e2000808f5000f7ff340050
:101b20001e4fe8004e4090009e40780080cf50004d
:101b3000efff35000080fa00000006000400fa0004
:101b4000204798000040eb00004f78000500370068
:101b50000060fe0000172100110020002232070063
:101b60001e4fe8002e4090009e40780080cf50002d
:101b7000f7ff35000080fa00000006000200fa00be
:101b8000000f780005003700a05b24000100200052
:101b90001532070011f02f001e8f4000f00f2000bb
:101ba0009e007800808f5000f7ff3e001e007800f6
:101bb0000000e0001b0032001e0078006101b80048
:101bc000f00f2000010020000202780003017800dd
:101bd00080017800010078000302620000006100cb
:101be0006101b800c011dd00020020000200be004b
:101bf0006121b80002007000838070006204200040
:101c00008289b900e002b900840178000301410033
:101c1000630420000300b800010141008200780045
:101c2000f13107000080fa00000006000200fa000f
:101c3000000f78000500370000e9250001112000a1
:101c4000e931070011f02f001e8f4000f00f200037
:101c50009e007800808f5000f7ff3e001e00780045
:101c60000000e0001b0032001e0078006101b80097
:101c7000f00f20000100200002027800030178002c
:101c8000800178000100780003026200000061001a
:101c90006101b800c011dd00020020000200be009a
:101ca0006121b800020070008380700002172100db
:101cb0008289b900e102b900840178000301410082
:101cc000031721000300b8000101410082007800e1
:101cd000c53107000080fa00000006000200fa008b
:101ce000000f78000400370000c0eb0093ff0700ee
:101cf00011f02f001e8f4000f00f20009e00780092
:101d0000808f5000f8ff3e001e0078000000e000c9
:101d1000030032001e0078000040780087ff0700b3
:101d20000080fa00000006000200fa00000f7800b0
:101d30000500370000282600117f2200aa31070085
:101d400011f02f001e8f4000f00f20009e00780041
:101d5000808f5000f7ff3e001e0078000000e0007a
:101d60001c0032001e0078006101b800f00f200056
:101d70000100200002027800030178008001780051
:101d80000100780003026200000061006101b800f8
:101d9000c011dd00020020000200be006121b80079
:101da000020070008380700002d821008289b9008f
:101db000c34220008382b9008401780003014100fe
:101dc00003d821000300b80001014100820078001f
:101dd000853107000080fa00000006000200fa00ca
:101de000000f78000400370000c0eb003bff070045
:101df00011f02f001e8f4000f00f20009e00780091
:101e0000808f5000f8ff3e001e0078000000e000c8
:101e1000030032001e007800004078002fff07000a
:101e20000080fa00000006000600fa00000f7800ab
:101e30001107980022079800ae0090001e00900045
:101e4000808f5000040031002e0090001e004000e2
:101e500010407800010037000040eb000080fa00dd
:101e6000000006000600fa001007980021079800fd
:101e70000000eb00000f7800060037001e00900005
:101e80001e004000104078000004e0000500320011
:101e90001e0fe8002e0090009e007800808f5000fa
:101ea000f6ff39001e0078000080fa0000000600ee
:101eb0000e00fa00100798002107980032079800da
:101ec0004307980054079800650798006e0090003b
:101ed0000000e00002003a005e0090004000370081
:101ee0000000eb00000f7800060037001e00900095
:101ef0001e004000104078000004e00005003200a1
:101f00001e0fe8002e0090009e007800808f500089
:101f1000f6ff39003e0090009e0f5000040039008b
:101f20005e0090008040eb00014878002b003700f5
:101f3000be0090004e009000008040009e0f5000b8
:101f4000030039003e0090001e001000400798007a
:101f5000ce0090006e009000808f5000020036008e
:101f6000ee009000410798009e0090003e00900017
:101f700000804000100798000000eb00000f780080
:101f80000b0037001e009000904078005e0090002b
:101f9000014878005e0090000000e80050079800bb
:101fa0001e0090000000e800100798001e0fe800d7
:101fb0004e0090009e007800808f5000f1ff3900a5
:101fc0006e0090009e007800808f5000030031006a
:101fd0005e0090008040eb00014878005e009000b9
:101fe0000080fa00000006000c00fa0010079800bc
:101ff000210798003207980043079800540798007b
:102000005e0090000000e00002003a004e009000e8
:10201000320037000000eb00000f780006003700a8
:102020001e0090001e004000104078000004e000f8
:10203000050032001e0fe8002e0090009e00780080
:10204000808f5000f6ff39003e0090009e0f500038
:10205000020036009e00780031079800be00900014
:102060005e009000808f500002003600de0090007d
:10207000310798000000eb00000f78000b003700dc
:102080001e009000904078004e00900001487800bb
:102090004e0090000000e800400798001e009000ed
:1020a0000000e800100798001e0fe8003e009000b6
:1020b0009e007800808f5000f1ff39005e00900094
:1020c0009e007800808f5000030031004e00900089
:1020d0008040eb00014878004e0090000080fa003c
:1020e000000006000e00fa00200798003107980053
:1020f0004207980053079800640798006e0090000c
:102100000000e00002003a005e0090003900370055
:102110000000eb00000f7800060037002e00900052
:102120001e004000104078000004e000050032006e
:102130001e0fe8003e0090009e007800808f500047
:10214000f6ff39004e0090009e0f5000020036004e
:102150009e007800410798004e0090001e0010007d
:1021600010079800ce0090006e009000808f500005
:1021700002003600ee00900041079800ae0090008b
:102180001e00900000804000200798000000eb0037
:10219000000f78000b0037002e0090009040780070
:1021a0005e009000014878005e0090000000e800aa
:1021b000500798002e0090000000e80020079800cb
:1021c0001e0fe8004e0090009e007800808f5000a7
:1021d000f1ff39006e0090009e007800808f500063
:1021e000030031005e0090008040eb000148780061
:1021f0005e0090000080fa00000006000e00fa0069
:10220000400798005107980062079800ce009000a0
:102210001107980000712200200798000000eb00d1
:10222000300798006e0090000000e00002003a00c5
:102230000040eb004b0037001e0090000000e00063
:1022400009003d005e009000d1c2b3000148780053
:102250003e0090000000e800300798001e0090004b
:102260000000ea00100798000040eb00004f7800e3
:102270001e0090000000e00028003a0010c0b300eb
:10228000004f78001000200020079800230037003e
:102290009e0090002e009000808f500003003100bf
:1022a0001e4078000004e000170032009e009000fd
:1022b0002e00900000017800110009008280d800f3
:1022c000004f7800de0090003e009000008040004b
:1022d00002c3b3009e404100014878003e009000d8
:1022e0000000e800300798009e0090001e81fb006f
:1022f0002e0090008090b9000080500010079800d8
:1023000010c0b300004f7800ae009000d0cc2c007d
:102310000008b8004308de0020079800be009000c7
:102320006e009000808f5000030031002e0090005e
:102330000000e000d6ff3a00be0090006e00900062
:10234000808f500005003100de0090003e009000bc
:10235000008040008040eb00014878003e00900083
:10236000004078000080fa00000006001400fa0027
:102370006007980071079800020f9800130f9800eb
:102380006e019000fe01900012079800230798004c
:1023900000a02c00a1b92300300798004107980045
:1023a0000000eb00500798001e0890000000e000bd
:1023b00002003a000040eb00670037001e0090006a
:1023c000ae009000e00f5000e08f58000c003d0080
:1023d0000e089000d1c2b300014878005e00900062
:1023e0000000e800500798001e009000ae0090002a
:1023f00060001000e0801800100798002107980086
:102400000040eb00004f78001e009000ae009000ee
:10241000e00f5000e08f58003b003a0010c0b300be
:10242000004f7800100020000100200030079800c5
:1024300041079800340037001e019000ae01900063
:102440003e009000ce009000800f5100818f590017
:10245000030031001e4078000004e0002300320039
:102460001e009000ae0090003e019000ce01900052
:1024700089fb0700004f78008e0890005e009000f6
:102480000080400003c3b3009ec0410001487800b3
:102490005e0090000000e800500798001e029000c7
:1024a000ae0290001e80fb008000eb003e01900019
:1024b0008191b900ce019000809bb900860178001f
:1024c00003014100be0190000018b8000101410065
:1024d000820078000000520081805a0010079800a6
:1024e0002107980010c0b300004f78003e00900014
:1024f000ce009000a20020000300200066fb070031
:102500003007980041079800de0090001e089000f8
:10251000808f5000050031003e009000ce009000fa
:10252000e00f5000e08f5800c3ff3a00de0090003b
:102530001e089000808f5000050031008e0890002a
:102540005e009000008040008040eb000148780071
:102550005e009000004078000080fa000000060055
:102560000e00fa0040079800510798006207980093
:10257000ce009000110798000071220020079800fb
:102580000000eb00300798006e0090000000e000b3
:1025900002003a000040eb003f0037000040eb0033
:1025a000004f78001e0090000000e00028003a0074
:1025b00010c0b300004f78001000200020079800e2
:1025c000230037009e0090002e009000808f500066
:1025d000030031001e4078000004e00017003200c4
:1025e0009e0090002e00900000017800110009006c
:1025f0008280d800004f7800de0090003e009000fe
:102600000080400002c3b3009e40410001487800b2
:102610003e0090000000e800300798009e80fb001c
:102620002e0090008088b9009e009000008050002d
:102630001007980010c0b300004f7800ae00900063
:10264000d0cc2c000008b8004308de00200798001a
:10265000be0090006e009000808f5000030031009b
:102660002e0090000000e000d6ff3a00be0090006f
:102670006e009000808f500005003100de00900059
:102680003e009000008040008040eb000148780050
:102690003e009000004078000080fa000000060034
:1026a0001400fa006007980071079800020f980064
:1026b000130f98006e019000fe0190001207980021
:1026c0002307980000a02c00a1b923003007980030
:1026d000410798000000eb00500798001e0890008a
:1026e0000000e00002003a000040eb005600370016
:1026f0000040eb00004f78001e009000ae009000fc
:10270000e00f5000e08f58003b003a0010c0b300cb
:10271000004f7800100020000100200030079800d2
:1027200041079800340037001e019000ae01900070
:102730003e009000ce009000800f5100818f590024
:10274000030031001e4078000004e0002300320046
:102750003e019000ce0190001e009000ae0090005f
:10276000cdfa0700004f78008e0890005e009000c0
:102770000080400003c3b3009ec0410001487800c0
:102780005e0090000000e800500798001e80fb00eb
:102790008000eb003e0190008191b900ce019000d5
:1027a000809ab9008401780003014100be019000c5
:1027b0000018b80001014100820078001e0190005d
:1027c000ae01900000005100818059001007980070
:1027d0002107980010c0b300004f78003e00900021
:1027e000ce009000a200200003002000aafa0700fb
:1027f0003007980041079800de0090001e08900006
:10280000808f5000050031003e009000ce00900007
:10281000e00f5000e08f5800c3ff3a00de00900048
:102820001e089000808f5000050031008e08900037
:102830005e009000008040008040eb00014878007e
:102840005e009000004078000080fa000000060062
:102850001400fa006007980071079800020f9800b2
:10286000130f98006e019000fe019000120798006f
:102870002307980000a02c00a1b92300300798007e
:10288000410798000000eb00500798001e089000d8
:102890000000e00002003a000e08900066003700d9
:1028a0001e009000ae009000e00f5000e08f580036
:1028b0000c003d000e089000d1c2b3000148780022
:1028c0005e0090000000e800500798001e00900095
:1028d000ae00900060001000e08018001007980023
:1028e000210798000040eb00004f78001e00900088
:1028f000ae009000e00f5000e08f58003b003a001f
:1029000010c0b300004f780010002000010020002c
:102910003007980041079800340037001e019000ee
:10292000ae0190003e009000ce009000800f51005c
:10293000818f5900030031001e4078000004e00040
:10294000230032001e009000ae0090003e01900077
:10295000ce01900050fa0700004f78008e089000da
:102960005e0090000080400003c3b3009ec04100a1
:10297000014878005e0090000000e80050079800d1
:102980001e029000ae0290001e80fb008000eb0053
:102990003e0190008191b900ce019000809bb9006a
:1029a0008601780003014100be0190000018b800c4
:1029b00001014100820078000000520081805a002d
:1029c000100798002107980010c0b300004f78004e
:1029d0003e009000ce009000a200200003002000e6
:1029e0002dfa07003007980041079800de0090009c
:1029f0001e089000808f5000050031003e009000be
:102a0000ce009000e00f5000e08f5800c3ff3a0066
:102a1000de0090001e089000808f500005003100fd
:102a20008e0890005e009000008040008040eb0027
:102a3000014878000e0890000080fa0000000600af
:102a40000c00fa0020079800310798004207980010
:102a5000530798005e0090000000e0003200320052
:102a6000be0090005e009000808f50000200310098
:102a7000de009000310798000000eb00000f7800a6
:102a80001a0037002e0090001e0040001040780011
:102a90000080fb00100798009e00900000042000ba
:102aa000808f5000080036009e009000a005200096
:102ab000808f500004003e009e0090000002200025
:102ac00000806800100798004e0090001e00400033
:102ad0009e00900081407800014878001e00900020
:102ae0000000e000060032001e0fe8003e009000eb
:102af0009e007800808f5000e2ff3900010037000f
:102b0000000000005e0090009e007800808f500062
:102b1000060031004e0090001e0040008040eb0097
:102b20000148780001003700000000000080fa0032
:102b3000000006000c00fa002007980031079800fa
:102b400042079800530798005e0090000000e000e4
:102b500032003200be0090005e009000808f500076
:102b600002003100de009000310798000000eb0009
:102b7000000f78001a0037002e0090001e00400061
:102b8000104078000080fb00100798009e00900025
:102b900000062000808f5000080036009e00900044
:102ba000a0072000808f500004003e009e0090008f
:102bb0000002200000806800100798004e0090007e
:102bc0001e0040009e00900081407800014878007f
:102bd0001e0090000000e000060032001e0fe8001a
:102be0003e0090009e007800808f5000e2ff390088
:102bf00001003700000000005e0090009e00780099
:102c0000808f5000060031004e0090001e004000f2
:102c10008040eb0001487800010037000000000010
:102c20000080fa00000006000e00fa00200798005d
:102c3000310798004207980053079800444f9800c6
:102c40000000eb00000f78003f0037002e009000de
:102c50001e00400090407800214798004e009000f0
:102c60001e00400090407800314798004e48900088
:102c70000004e00018003200ae40900000c6b3002f
:102c800080cf500008003600ae409000a0c7b300cf
:102c900080cf500004003e00ae409000f0cdb30065
:102ca00000c0600020479800be40900000c6b300fe
:102cb00080cf500008003600be409000a0c7b3008f
:102cc00080cf500004003e00be409000f0cdb30025
:102cd00000c06000304798003e4090000004e000d3
:102ce00007003a002e4090000004e00002003a0085
:102cf0000040eb003700370010c0b300350037004c
:102d00002e4090000004e00002003a0000c0eb00fa
:102d100030003700ae4090003e40900080cf500021
:102d20000200310000c0eb002a003700ae409000e6
:102d30003e40900080cf50000200360010c0b3002b
:102d4000240037001e0fe8003e0090009e0078002f
:102d5000808f5000040031005e0090009e007800db
:102d6000808f5000b9ff3900be0090005e009000d7
:102d7000808f5000090036002e0090001e00400099
:102d8000104078000004e00002003a000040eb0030
:102d90001000370010c0b3000e003700be009000d6
:102da0005e009000808f5000090031004e009000be
:102db0001e004000104078000004e00002003a00cd
:102dc0000040eb000300370000c0eb0001003700bb
:102dd0000040eb000080fa00000006002600fa0028
:102de000881f7800600f9800710f980002679800a4
:102df00013179800241798000000eb0010079800a4
:102e00000000200001f023002007980031079800ff
:102e10000040eb00004f780008003700d2cc2c00b7
:102e2000c3dc23002e009000be009000e6f80700ef
:102e300020079800310798001e4fe8000e609000b0
:102e40009e40780080cf5000f4ff390018c0b300d6
:102e50006011b8006e089000fe08900055f8070059
:102e60000000e000010035000044eb000804e00031
:102e70000d0032006e089000fe08900001f0a200e4
:102e8000600f9800710f98009e1090001e00900037
:102e900000804000d1c2b300014878001e009000bd
:102ea0000000e800100798002e019000be0190007d
:102eb0006e089000fe0890003af70700600f980037
:102ec000710f98006e089000fe08900063f80700ec
:102ed00020079800310798002e009000be00900057
:102ee00038f8070060079800710798002e019000dd
:102ef000be0190006e089000fe08900028f70700c1
:102f0000400798005107980070004700c300200058
:102f1000000178006e009000fe0090004cfe07005b
:102f20000040eb00004f78000f0037009e0090003b
:102f30002e109000808f50000a0031009e109000eb
:102f40001e009000008040009e80fb00f08040004a
:102f5000eec07800014878001e0090000000e800f4
:102f6000100798001e4fe8001e80fb007000400014
:102f70006e4078000004e000ecff3a009e009000f4
:102f80002e109000808f5000080031009e1090009d
:102f90001e00900000804000e1c2b30001487800ac
:102fa0001e0090000000e800100798000040eb00b1
:102fb000004f7800270037009e0090002e109000f0
:102fc000808f5000280031000200200003122400ee
:102fd0004e009000de0090007bf80700400798004c
:102fe000510798004e009000de009000f5f70700b2
:102ff00060079800710798006e009000fe00900036
:1030000011f8070020079800310798002e01900062
:10301000be0190004e009000de009000e0f6070038
:1030200040079800510798009e1090001e009000e5
:1030300000804000ee009000814078000143b00025
:10304000014878001e0090000000e800100798007a
:103050001e4fe8000e6090009e40780080cf500028
:10306000d5ff390001003700000000009e009000ed
:103070002e109000808f5000050031009e109000af
:103080001e009000008040008040eb000148780066
:103090001e1090004f0478000080fa000000060027
:1030a0001a00fa00100f9800210f9800320f9800b4
:1030b000430f98000000eb0010079800ea0047005b
:1030c000030009008018eb001e099000ae09900073
:1030d00022079800330798003e0890008040eb00dc
:1030e000014878001e089000ae089000c809de0074
:1030f000480add004801de0002017200f00f2000e6
:1031000001002000800f5100818f5900050036001a
:103110004e089000e90f500002003e003e0890006b
:10312000670037001e099000ae099000f00f2000e4
:1031300001002000800f5100818f590005003600ea
:103140004e089000e50f500002003e003e0890003f
:103150005b0037001e099000ae099000f00f2000c0
:1031600001002000800f5100818f590005003e00b2
:103170004e089000e30f500002003e003e08900011
:103180004f0037003e08900001c3b30001487800ab
:103190003e0890000000e80081c7b30001487800b5
:1031a0002e0090006f006000400798002e009000f5
:1031b000be0090004c09dd004400de0000007100fc
:1031c000c408de0020079800310798004e009000e8
:1031d000e90f50000b0036004e0090006a005000ce
:1031e000400798004e0090000040780013c4b300e0
:1031f000834040001e0090006a0040000177780084
:10320000070037004e0090000040780004c3b30070
:10321000844040001e0090006a0040000177780062
:103220001e0090000000e800100798002e0090009b
:10323000be009000e00f5000e08f5800d8ff3a0029
:103240001e009000e10f500004003a0000c3b300dc
:10325000304f980020002000100798002000200028
:10326000000f7800090037003e0890001e00400063
:103270009e0090009e8050008100e800ea8040009f
:10328000eec07800014878001e0fe8001e00900094
:103290000080e8009e0f5000f3ff3e004e089000b3
:1032a0009e007800808f5000040031003e0890009e
:1032b0001e0040008040eb00014878003e0890006e
:1032c0000080fa00000006000c00fa004007980099
:1032d000510798000040eb00004f78000000eb0021
:1032e000100798006000b800200798003107980088
:1032f00011003700ce0090001e00900000804000ba
:1033000090407800d0c2b30080cf500007003a0050
:1033100010c0b300004f78001e0090000000e800cd
:103320001007980000000000340037001e009000d5
:103330000000e800100798009e0090005e009000da
:10334000808f50002d003100ce0090001e009000b4
:103350000080400090407800f0c2b30080cf500061
:10336000e4ff3600ce0090001e0090000080400078
:103370009040780090c3b30080cf5000ddff3e0046
:103380001e0037003e009000ea01b9002e009000b8
:10339000e000b90000014100ae009000a000200054
:1033a0000008b80001014100820078002007980061
:1033b000310798002007980031079800ce00900050
:1033c0001e00900000804000104078000080fb004c
:1033d0000003b100cf80de002e019000be019000fe
:1033e00002004000838048002007980031079800c1
:1033f0001e0090000000e800100798009e0090005a
:103400005e009000808f50000e003100ce009000d2
:103410001e0090000080400090407800f0c2b30091
:1034200080cf500007003600ce0090001e009000b4
:10343000008040009040780090c3b30080cf5000df
:10344000d0ff36001e4078000004e0000600320085
:103450002e009000be00900060001000e080180078
:1034600020079800310798002e009000be009000c1
:103470000080fa00000006002000fa00600f9800ab
:10348000710f98006000b800008fbe00000020009f
:1034900001f8230020079800310798000000eb0096
:1034a000400798000040eb00204f98000040eb00e0
:1034b000304f98006e08900090407800d0c2b30062
:1034c00080cf500004003a0010c0b300304f980085
:1034d00010c0b300204f98002e4890000080fb00e1
:1034e000400798000a003700ee0890004e00900058
:1034f0000080400090407800e0c2b30080cf5000d0
:10350000080032004e0090000000e80040079800dc
:10351000ce0090007e089000808f5000f2ff3900ae
:103520000100370000000000ce0090006e089000ff
:1035300065ff07006007980071079800ce009000b3
:103540007e089000808f500007003a006e009000c7
:10355000fe009000bff60700008fbe001e0078003e
:103560009e009000540037004e009000004078000c
:103570000040e800204f98002e4890000080fb009b
:103580004007980022003700ee0890004e0090009f
:103590000080400090407800f0c2b30080cf50001f
:1035a0001f003600ee0890004e00900000804000a2
:1035b0009040780090c3b30080cf500018003e00c8
:1035c0002e4890000080fb00ce009000008050004c
:1035d0006e099000ce00900081004100914078007b
:1035e0007400400001777800d2cc2c00c3dc2300ab
:1035f0002e009000be009000f3f607002007980010
:10360000310798004e0090000000e8004007980045
:10361000ce0090007e089000808f5000daff3900c5
:103620002e4890000080fb00ce009000808050006b
:103630007400470024ff0700000f9800110f980046
:103640000e0890009e08900082f60700008fbe00d2
:103650002e019000be0190001e0078009e00900098
:10366000d9f60700008fbe006e009000fe009000ab
:1036700078f6070020079800310798002e01900087
:10368000be0190001e0078009e00900045f50700e6
:10369000008fbe003e4890000004e00004003200ad
:1036a0001e0078009e00900001f0a200008fbe0076
:1036b0001e0078009e0090000080fa0000000600c6
:1036c0000c00fa0020079800310798004207980084
:1036d000530798000000eb0010079800090037001e
:1036e000ae0090001e009000008040001040780066
:1036f0000004e000070032001e0090000000e80017
:10370000100798009e0090003e009000808f5000af
:10371000f3ff39009e0090005e009000808f500003
:1037200002003600de009000110798009e00900015
:10373000010f7800070037001e0fe9004e009000cf
:103740001e004000ae0090009e8040009140780036
:10375000014878001e0078000000e000f6ff3a0003
:103760001e0090000080fa00000006000a00fa0027
:103770001007980021079800320798004307980027
:103780000000eb00000f7800070037003e009000bb
:103790001e0040009e0090009e80400091407800f6
:1037a000014878001e0fe8002e0090009e0078006f
:1037b000808f5000090031004e0090009e0078007c
:1037c000808f5000050031001e0090001e00400058
:1037d000104078000004e000ecff3a001e00780082
:1037e0000080fa00000006001000fa002007980090
:1037f0003107980042079800530798006407980023
:10380000750798000000eb00000f7800ce009000d4
:103810006e009000808f500077003a000000eb00af
:103820001007980009003700ae0090001e009000bd
:1038300000804000104078000004e00007003200e3
:103840001e0090000000e800100798009e00900005
:103850003e009000808f5000f3ff39009e009000e2
:103860007e009000808f50004b0031000000eb0084
:10387000000f7800060037004e0090001e00400048
:10388000104078000004e000050032001e0fe80040
:103890005e0090009e007800808f5000f6ff390097
:1038a000fe0090001e009000008050009e0f50000f
:1038b00003003100fe0090001e009000008f5000b9
:1038c0001e0090001e004000500798009e007800e7
:1038d000110798000e0037001e0090000000e9005c
:1038e000100798005e0090000000e9005007980063
:1038f000ee0090005e009000008040004e019000bd
:103900009e009000810041009140780001487800bd
:103910001e0090000000e000efff3a000000eb0006
:10392000100798000b003700ee0090001e0090007a
:10393000008040002e0190009e0090008100410018
:1039400091407800014878001e0090000000e800d7
:10395000100798009e0090003e009000808f50005d
:103960000a0031009e0090007e009000808f500081
:1039700006003100ae0090001e0090000080400064
:10398000104078000004e000e7ff3a001e009000bd
:103990001e0f4000570037000000eb00000f7800ba
:1039a000070037006e0090001e004000ae0090003f
:1039b0009e80400091407800014878001e0fe8008a
:1039c0003e0090009e007800808f5000490031003a
:1039d0007e0090009e007800808f500045003100ee
:1039e0002e0090001e004000104078000004e0000f
:1039f000ecff3a003f0037000000eb00000f7800ba
:103a0000070037006e0090001e004000ae009000de
:103a10009e80400091407800014878001e0fe80029
:103a20003e0090009e007800808f50000900310019
:103a30007e0090009e007800808f500005003100cd
:103a40002e0090001e004000104078000004e000ae
:103a5000ecff3a007e0090009e007800808f5000be
:103a6000240031006e0090001e00400020079800e6
:103a70007e0090001e005000300798000000eb0010
:103a8000100798000b003700ae0090001e00900059
:103a9000008040004e0190009e0090008100410097
:103aa00091407800014878001e0090000000e80076
:103ab000100798009e0090005e009000808f5000dc
:103ac0000a0031009e0090003e009000808f500060
:103ad00006003100ce0090001e00900000804000e3
:103ae000104078000004e000e7ff3a001e0090005c
:103af0001e0f40007e0090009e007800808f5000d6
:103b0000040031006e0090001e0040008040eb0079
:103b1000014878000080fa00000006000a00fa0060
:103b20001007980021079800320798004307980073
:103b30000000eb00000f7800070037003e00900007
:103b40001e0040009e0090009e8040009140780042
:103b5000014878001e0fe8002e0090009e007800bb
:103b6000808f5000090031004e0090009e007800c8
:103b7000808f5000050031001e0090001e004000a4
:103b8000104078000004e000ecff3a004e00900086
:103b90009e007800808f5000040031003e009000ad
:103ba0001e0040008040eb00014878000080fa00d1
:103bb000000006000400fa00004f7800114798004a
:103bc00022479800334798001e4078000004e00028
:103bd00005003a0000e12000708388006c30ef009f
:103be00010002000f07088001e407800e14f500067
:103bf00006003a0000e120007083880010002000d9
:103c00006083880020002000f07088001e4078004b
:103c1000e24f500006003a0000e120007083880067
:103c2000200020006083880040002000f0708800a1
:103c30001e407800e34f500006003a0000e12000eb
:103c4000708388003000200060838800800020009e
:103c5000f07088001e407800e44f500006003a00e3
:103c600000e120007083880040002000608388000d
:103c700000012000f07088001e407800e54f5000e1
:103c800006003a0000e12000708388005000200008
:103c90006083880000022000f07088001e407800d9
:103ca000e84f500006003a0000e1200070838800d1
:103cb000800020006083880000102000f0708800e1
:103cc0001e407800e94f500006003a0000e1200055
:103cd000708388009000200060838800002020000e
:103ce000f07088001e407800ea4f500006003a004d
:103cf00000e1200070838800a0002000608388001d
:103d000000402000f07088001e407800ee4f500008
:103d100006003a0000e1200070838800e0002000e7
:103d20006083880000002400f07088001e40780046
:103d3000ef4f500006003a0000e120007083880039
:103d4000f00020006083880000002800f0708800e8
:103d50001e407800f44f500006003a0000e42000b6
:103d6000708388008000200060838800001020009d
:103d7000707288001e407800f54f500006003a002f
:103d800000e4200070838800900020006083880099
:103d9000002020007072880070838000104078003e
:103da0000080fb0050838800708380006183800066
:103db000120020008110dd00014178005183800055
:103dc0008140780081407100014878001e80fb002e
:103dd0007f0060004019880023c3a90023e3a900e5
:103de0002e4090000004e00002003a0023a3a90046
:103df0000100370023a3a8009e40900000c4b30038
:103e000080cf500002003a0025e3a80004003700ec
:103e100025e3a9001e4090000080fb0020198800c7
:103e20002143a80021e3a8002023a8003e409000e1
:103e30000080fb008000eb00620420008289b90052
:103e4000e002b9008401780003014100630420000e
:103e50000300b800010141008200780062290700d8
:103e60002023a9000080fa00000006000400fa00e8
:103e700020479800000000000019800061006000e9
:103e80000000e000fcff32002e4090000004e00043
:103e90000300320001188000010f78000300370092
:103ea000001880004400de00000f78002023a800e6
:103eb00060042000010020004b2907002023a900f6
:103ec0001e0078000080fa00000006000000fa00e2
:103ed0007083800051838000814078000148780021
:103ee00021e3a9000e2eef001e2eef002e2eef0074
:103ef0004e2eef000080fa00000006000000fa00dd
:103f00001722a8001702a90017e2a800f01f20003e
:103f1000a01088000080fa00000006000000fa00ef
:103f20001622ef000080fa00000006000000fa00f0
:103f30001602a80000000000b010800061006000c0
:103f40000000e000fcff3a000080fa0000000600dc
:103f50000000fa001622a80000000000b010800047
:103f6000620060000000e000fcff3a000080fa0000
:103f7000000006000000fa001642a8000000000041
:103f8000b0108000640060000000e000fcff3a0018
:103f900000e62a00a1002000132907000080fa0093
:103fa000000006000200fa00004f78001e80fb00af
:103fb0009010880000000000c11080000000240064
:103fc000008060000000e000fbff3a00c1108000ac
:103fd00000002800008060000000e00002003200c5
:103fe00010c0b300010037000040eb000080fa0071
:103ff000000006000200fa00004f78001662a800d8
:1040000000000000b0108000680060000000e000c8
:10401000fcff3a001e4078000004e000020032007d
:1040200016a2a8000100370016a2a9001682a80057
:1040300000000000b0108000700060000000e00090
:10404000fcff3a0080108000004078000080fa00f9
:10405000000006000200fa00004f780011479800a7
:1040600000042800b01088001e80fb000000d10072
:10407000004078000080fb00d01088001e409000b7
:104080000080fb000000d100004078000080fb00b1
:10409000e01088000628a9000080fa000000060051
:1040a0000000fa001622ef000080fa00000006006f
:1040b0000200fa00004f78000628a9001e80fb00cd
:1040c000901088001782a80000000000b110800046
:1040d00000002100008060000000e00004003200c9
:1040e000c0108000680060000000e000f7ff3a00a8
:1040f0000628a900c1108000000028000080600090
:104100000000e00004003a00c01080006800600079
:104110000000e00002003a0010002000010037001b
:104120000000eb00004078000080fa00000006006c
:104130000400fa002047980080108000004f7800ab
:104140000628a900c1108000000220000080600045
:104150000000e0001b003200c0108000640060001e
:104160000000e00017003a002e4090000080fb00a5
:104170000000ea004f00de00004078000080fb00f5
:10418000610060004500dd00b2108000f1fd2f00ed
:104190008100610001007000b01088002e40900086
:1041a0000004e00007003a001782a80000000000a9
:1041b000b110800000002100008060000000e000dd
:1041c000fbff3a001782a8001e4078000080fa002a
:1041d000000006000200fa000040eb00004f7800eb
:1041e00030408000620060000000e000010032000a
:1041f0001e04a000c0108000640060000000e00009
:10420000010032001e24a000c01080006800600081
:104210000000e000010032001e34a000c010800049
:10422000700060000000e000010032001e44a000a9
:10423000c110800000022000008060000000e0004b
:10424000010032001e54a0001e4078000080fa00d9
:10425000000006000000fa0001348000f00f2c007e
:104260000080600000c0a0000034880081718000e0
:10427000d0ff2f000080600080718800a171800055
:10428000d0ff2f0000806000a07188000429ef009b
:104290000629ef0050c0200000488800f0002000f0
:1042a000104888000080fa00000006000000fa00b4
:1042b000807180000010a000807188000029ef004c
:1042c0000080fa00000006000200fa00004f7800ab
:1042d0001e4078000004e00002003a0010c0b30065
:1042e000004f78001e80fb00204888000080fa0004
:1042f000000006000400fa00000f78001107980083
:104300009e007800e10888001e0090000104200053
:10431000810f50000b00320001102000810f50006f
:104320000b003200e80f50000300320000002800ac
:1043300000098800090037000001280000098800f2
:10434000060037000002280000098800030037003b
:104350000003280000098800000000000080fa0027
:10436000000006000200fa00000f78001e0078002e
:104370000000e00002003a0010002000000f78006a
:104380009e007800214888000080fa0000000600a6
:104390000000fa001134800000fc2f000080600053
:1043a0001001b3001034880081718000b0ff2f002d
:1043b0000080600080718800a1718000b0ff2f0034
:1043c00000806000a0718800c00020006048880064
:1043d0000e29ef001029ef0050c02000504888003f
:1043e000f0002000604888000080fa00000006000d
:1043f0000000fa00807180000020a0008071880019
:104400000a29ef000080fa00000006000200fa000e
:10441000004f78001e4078000004e00002003a00df
:1044200010c0b300004f78001e80fb007048880069
:104430000080fa00000006000400fa00000f780077
:10444000110798009e007800e10888001e00900087
:1044500001042000810f50000b00320001102000e9
:10446000810f50000b003200e80f500003003200b3
:10447000000028000009880009003700000128001a
:1044800000098800060037000002280000098800a3
:104490000300370000032800000988000000000026
:1044a0000080fa00000006000200fa00000f780009
:1044b0001e0078000000e00002003a00100020001a
:1044c000000f78009e007800714888000080fa0094
:1044d000000006000000fa000134800000fc2f00fc
:1044e000008060004001b3000034880081718000ca
:1044f000e0ff2f000080600080718800a1718000c3
:10450000e0ff2f0000806000a0718800c000200044
:10451000504988002c29ef002e29ef0050c02000c0
:1045200040498800f0002000504988000080fa00cf
:10453000000006000000fa00807180000000a0006a
:10454000807188002829ef000080fa000000060032
:104550000200fa00004f78001e4078000004e000de
:1045600002003a0010c0b300004f78001e80fb002c
:10457000604988000080fa00000006000400fa008c
:10458000000f7800110798009e007800e10888006d
:104590001e00900001042000810f50000b0032002b
:1045a00001102000810f50000b003200e80f500076
:1045b00003003200000028000009880009003700cd
:1045c00000012800000988000600370000022800ca
:1045d0000009880003003700000328000009880054
:1045e000000000000080fa00000006000200fa004f
:1045f000000f78001e0078000000e00002003a0082
:1046000010002000000f78009e00780061498800ab
:104610000080fa00000006000000fa00113480005b
:10462000f00f2c008080600000502100010070001d
:10463000103488008171800070ff2f0000806000be
:1046400080718800a171800070ff2f0000806000e1
:10465000a0718800c0002000a04988003629ef0022
:104660003829ef0050c0200090498800f000200059
:10467000a04988000080fa00000006000000fa004f
:10468000807180000030a000807188003229ef0026
:104690000080fa00000006000200fa00004f7800d7
:1046a0001e4078000004e00002003a0010c0b30091
:1046b000004f78001e80fb00b04988000080fa009f
:1046c000000006000400fa00000f780011079800af
:1046d0009e007800e10888001e0090000104200080
:1046e000810f50000b00320001102000810f50009c
:1046f0000b003200e80f50000300320000002800d9
:10470000000988000900370000012800000988001e
:104710000600370000022800000988000300370067
:104720000003280000098800000000000080fa0053
:10473000000006000200fa00000f78001e0078005a
:104740000000e00002003a0010002000000f780096
:104750009e007800b14988000080fa000000060041
:104760000000fa0081348000f00f2c00808060008f
:1047700000202100010070008034880081728000d8
:1047800070ff2f000080600080728800a17280009e
:1047900070ff2f0000806000a0728800c000200021
:1047a000b04888001829ef001a29ef005080200037
:1047b000a0488800e0002000b04888000080fa008f
:1047c000000006000000fa00807280000030a000a7
:1047d000807288001429ef000080fa0000000600b3
:1047e0000200fa00004f78001e4078000004e0004c
:1047f00002003a0010c0b300004f78001e80fb009a
:10480000c04888000080fa00000006000400fa009a
:10481000000f7800110798009e007800d1088800ea
:104820001e00900001042000810f50000b00320098
:1048300001102000810f50000b003200e80f5000e3
:104840000300320000002800f0088800090037004b
:1048500000012800f0088800060037000002280048
:10486000f00888000300370000032800f0088800e3
:10487000000000000080fa00000006000200fa00bc
:10488000000f78001e0078000000e00002003a00ef
:1048900010002000000f78009e007800c1488800ba
:1048a0000080fa00000006000000fa00c134800019
:1048b000f00f2c00808060000030210001007000ab
:1048c000c034880001738000e0ff2f00008060008a
:1048d0000073880021738000e0ff2f0000806000db
:1048e00020738800c0002000004988002229ef00c2
:1048f0002429ef0050c02000f0488800f00020007c
:10490000004988000080fa00000006000000fa005c
:10491000007380000000a000007388001e29ef00d3
:104920000080fa00000006000200fa00004f780044
:104930001e4078000004e00002003a0010c0b300fe
:10494000004f78001e80fb00104988000080fa00ac
:10495000000006000400fa00000f7800110798001c
:104960009e007800e10888001e00900001042000ed
:10497000810f50000b00320001102000810f500009
:104980000b003200e80f5000030032000000280046
:10499000000988000900370000012800000988008c
:1049a00006003700000228000009880003003700d5
:1049b0000003280000098800000000000080fa00c1
:1049c000000006000200fa00000f78001e007800c8
:1049d0000000e00002003a0010002000000f780004
:1049e0009e007800114988000080fa00000006004f
:1049f0000000fa00b1348000f00f2c00008060004d
:104a00000080a000b03488002136800000f82f001c
:104a10008080600080062000010070002036880041
:104a200050022000401188002222ef002022ef00d7
:104a300021e2a8002342a8002168a9000080fa0012
:104a4000000006000000fa002222ef002022ef0002
:104a50000080fa00000006000200fa00000f780053
:104a60000000000011118000002020000080600084
:104a70000000e000fbff3a00f00f20001e0f600076
:104a80009e007800211188000080fa0000000600d6
:104a90000a00fa00004f980000c0eb00004f7800b9
:104aa0000040eb00104798000040eb006047980082
:104ab0000040eb00204798000040eb003047980092
:104ac0000040eb00704798000e489000e14f400016
:104ad0002b003a0010c0b300204798002800370090
:104ae0002e4090000004e0001c003a000e489000a8
:104af0000004e00003003a0010c0b3003047980003
:104b0000160037000000eb00200798000300370074
:104b10002e0090000000e80020079800ae009000f2
:104b200050042000808f5000f9ff36001e40900096
:104b30000040e800104798001e409000e64f4000fb
:104b400006003a000e4890000040e900004f98002f
:104b50000060fe000040eb0010479800101180003c
:104b60000040780061406000604798006e4090000f
:104b70000004e0000200320020c0b300304798007b
:104b80003e4090000004e000d5ff32003e4090001f
:104b9000e24f500017003a00101180004200de0082
:104ba00061406000604798006e4090000004e000a3
:104bb0000300320030118000704798000d0037006c
:104bc000101180000000d100614060006047980033
:104bd0006e4090000004e000020032002222a90092
:104be000040037000040eb00004f780030118000d7
:104bf000004f78001e80fb000080fa0000000600d5
:104c00000000fa000080fa00000006000400fa002c
:104c1000204798002e409000e74f500039003e009a
:104c20002e4090000004e00003003a00d0e3200092
:104c3000000f78002c0037002e409000e14f50000c
:104c400003003a00e0712000000f780026003700d2
:104c50002e409000e24f500003003a00f038200050
:104c6000000f7800200037002e409000e34f5000e6
:104c700003003a00701c2000000f78001a00370073
:104c80002e409000e44f500003003a00300e200008
:104c9000000f7800140037002e409000e54f5000c0
:104ca00003003a0010072000000f78000e003700c4
:104cb0002e409000e64f500003003a00b004200060
:104cc000000f7800080037002e409000e74f50009a
:104cd00003003a0050022000000f78000200370065
:104ce000701c2000000f780021e2a9002342a900d7
:104cf0009e0078004111880021e2a8002342a8000c
:104d000001003700000000000080fa0000000600eb
:104d10000600fa004047980051479800ce409000a6
:104d2000e0c5b30080cf500003003600a0cab30036
:104d3000004f78000c0037004e4090000080fb00d0
:104d4000e500b900800078005e4090000080fb0024
:104d50000080400010079800e1a628001e00900087
:104d600000804000104f78001e4078000080fa005c
:104d7000000006000e00fa00300798004107980076
:104d800052079800434f9800544f98000e01780046
:104d90003e009000cf80de0063002000acf60700ec
:104da000de4a90004e4a9000de0190004e019000d5
:104db000610020000e007800b30107000080fa00b7
:104dc000000006001600fa006007980071079800be
:104dd000020f9800130f98004457980055579800f9
:104de0000e007800c3002000000178006e009000e3
:104df000fe0090002af60700de5290004e5290000e
:104e00009e0990000e099000c10020000e0078005d
:104e10009d0107000080fa00000006001200fa0061
:104e2000604f9800714f98000257980013579800f0
:104e30000000eb00000f7800100020003007980001
:104e400010002000400798000e5090008080fb006a
:104e50006e4890000080fb00008050001007980012
:104e60001e5090008080fb007e4890000080fb0078
:104e700000805000200798001e0090000000e00015
:104e800005003d000080eb00300798001e009000f8
:104e90000000ea00100798002e0090000000e000db
:104ea00005003d000080eb00400798002e009000b8
:104eb0000000ea0020079800ae0090001e0090005d
:104ec000808f500021003c001e0090000000400038
:104ed000500798002e0090000000400060079800e6
:104ee00015003700fe4890006e489000c100070092
:104ef0003e00900000407800ee48900000c0400066
:104f0000604f98006e0090001e0f40001e00900041
:104f10009e007800808f5000070034004e00900003
:104f200000407800fe48900000c04000704f98009c
:104f30005e0090001e0f1000ee4890000e50900092
:104f400080cf5000e7ff3a00200037002e0090008d
:104f500000004000500798001e0090000000400034
:104f60006007980015003700fe4890006e489000da
:104f7000a00007004e00900000407800fe4890001e
:104f800000c04000704f98006e0090001e0f40005f
:104f90002e0090009e007800808f500007003400a3
:104fa0003e00900000407800ee48900000c04000b5
:104fb000604f98005e0090001e0f1000fe489000a9
:104fc0001e50900080cf5000e7ff3a00fe4890004e
:104fd0006e489000870007000080fa00000006007d
:104fe0000200fa00004f78000170800070ff2f006f
:104ff0000080600000708800207080000030a000f9
:105000001070880001708000b0ff2f0000806000e9
:105010000070880021708000b0ff2f0000806000c9
:10502000107088000870ef00280037001e407800dc
:105030000004e00008003d0001738000f0ef2f0045
:105040000080600000738800207380000080a00052
:10505000107388000800370001738000f0ef2f0004
:10506000008060000073880021738000f0ef2f0043
:10507000008060001073880001738000f0fb2f0037
:10508000008060000073880021738000f0fb2f0017
:1050900000806000107388001e40780000404000cf
:1050a000004f780001738000f0fb2f00008060004b
:1050b00000738800207380000060a00010738800d7
:1050c00008d0bf000040e80008f0b70008d0bf00db
:1050d000e74f5000d5ff360010d0bf000040e80079
:1050e00010f0b70010d0bf000004e00009003d0040
:1050f000010121009140780000c8b30000c04000c9
:1051000010f0b700f10021009140780010d0bf00ee
:105110000900070001708000b0ff2f0000806000d0
:1051200000708800207080000020a00010708800af
:105130000080fa00000006000600fa0040479800d0
:10514000514798004e4090000004e00002003d00ee
:105150000040eb00404798005e409000ff4f500039
:10516000020036000040eb00504798004e4190008e
:1051700001012100824878005e419000f100210089
:10518000824878005e4090000080fb004300de0013
:10519000004078000ef0b700e10021009140780057
:1051a00000cbb30000cf70004e4090000080fb00a9
:1051b0004400de00004078000044a0001047980042
:1051c0004e4090006f4060002047980000c4b3003c
:1051d000890107001e407800870107001e409000eb
:1051e000850107002e409000830107000080fa002f
:1051f000000006000800fa00604798007147980018
:105200007e4090000080fb004300de00004f7800ed
:105210006e4090000004e00004003d00ee4090006d
:1052200000c8b30000c04000604798001e80fb002b
:10523000c700dd006e4090000080fb000080400051
:10524000100798007e40900067406000404798003b
:10525000908080000000e00011003200010d21006c
:105260001e009000008040001040780080407800d0
:105270004e4090000080fb00120020000010dd0076
:105280000040780000c0700080407800020d2100ce
:105290001e00900000004100014878001100370016
:1052a000010d21001e009000008040001040780099
:1052b000804078004e4090000080fb0012002000eb
:1052c0000010dd000040780000c0ea0000c060006f
:1052d00080407800020d21001e0090000000410077
:1052e0000148780000cbb3001e4070004201070067
:1052f0006e4090000080fb004400de00004078001b
:105300000044a0003c0107006e4090006f40600028
:1053100039010700010d21001e00900000804000af
:10532000104078002eff07000080fa000000060001
:105330000200fa00004f78001e4178004101210070
:10534000824878000080fa00000006000800fa0099
:1053500060479800714798007e4090000080fb00f5
:105360004300de00004f78006e4090000004e00033
:1053700004003d00ee40900000c8b30000c04000b3
:10538000604798001e80fb00c700dd006e40900063
:105390000080fb0000804000100798007e409000d5
:1053a0006740600040479800608080000000e00097
:1053b00011003200010d21001e009000008040000d
:1053c00010407800804078004e4090000080fb0044
:1053d000120020000010dd000040780000c07000c6
:1053e00080407800020d21001e0090000000410066
:1053f0000148780011003700010d21001e009000c7
:105400000080400010407800804078004e409000be
:105410000080fb00120020000010dd00004078003a
:1054200000c0ea0000c0600080407800020d21004a
:105430001e009000000041000148780000cbb3003e
:105440001e407000ec0007006e4090000080fb00e2
:105450004400de00004078000044a000e6000700a1
:105460006e4090006f406000e3000700010d2100d6
:105470001e0090000080400010407800d8fe070019
:105480000080fa00000006001800fa00881f78006b
:1054900070079800010f9800120f9800230f9800d2
:1054a00064579800755798000040eb0040479800fb
:1054b0002e089000670060000000e00007003a003e
:1054c00010c0b300404798002e089000804078003c
:1054d0001e0890000040780017ff07000040eb0016
:1054e000304798007e0090008e0890005df2070023
:1054f00050479800800037003e4090000080fb003d
:10550000fe0090000080400010407800804078004d
:1055100000ceb30000c04000604798000040eb00a0
:10552000204798000a0037002e4090000084fb00be
:10553000ae4090006e409000f5fd0700e70044008b
:1055400000f778002e4090000040e80020479800c7
:105550002e409000e44f5000f3ff36000040eb0077
:10556000004f78002e4090000080fb006700400054
:105570008040eb0001777800560037004e409000e5
:105580000004e000030032007e5090000004e000c0
:10559000290032000040eb0010479800220037003d
:1055a0001e80fb00670040006e4078008080fb009a
:1055b0001e4090000080fb000088de00610060005b
:1055c000004078000004e000090032002e0890003e
:1055d000804078001e40900080c040001e0890006f
:1055e000004078001e40400002ff07000b0037001b
:1055f0007e5090000004e00008003a002e08900061
:10560000804078001e40900080c040001e0890003e
:10561000004078001e4040004cff07001e409000f4
:105620000040e800104798001e409000e74f5000ef
:10563000dbff360026003700908080000000e0008d
:10564000110032000ed0bf000080fb00c700dd005b
:1056500010d0bf000080fb00008040009e80fb0057
:10566000e7804000eec07800020d210000004100fc
:10567000014878001e80fb00670040006e40780003
:1056800057fe0700120037000ed0bf000080fb005d
:10569000c700dd0010d0bf000080fb00008040008c
:1056a0009e80fb00e7804000eec0780081c0ea00e9
:1056b000020d210000004100014878001e80fb001f
:1056c000670040006e40780000c0ea0044fe07001a
:1056d0001e4fe8001e407800e54f5000a7ff36003f
:1056e0001e08900066004000100f98003e40900099
:1056f0000040e80030479800be4090005e409000b7
:1057000080cf50007cff39004f0478000080fa0001
:10571000000006000400fa000000eb00000f780013
:105720000000eb001007980009003700608080003f
:1057300080407800020d21001e0090000000410012
:10574000014878001e0090000000e8001007980053
:105750009e009000f01f2000808f5000f3ff360065
:10576000150037000000eb00100798000d0037000f
:105770001e00780080407800300020008008dd00a6
:105780001e009000004078006bfe070060808000e3
:105790000040780012fe07001e0090000000e800a4
:1057a000100798009e009000f0072000808f5000a6
:1057b000efff36001e0fe8001e007800e30f5000d8
:1057c000e8ff36000080fa00000006000200fa0040
:1057d000004f78001e4078000004e0000300320013
:1057e000f00f200060808800010037000c30ef00cf
:1057f0000080fa00000006000200fa00004f780066
:105800000170800070ff2f00008060000070880031
:105810002170800070ff2f000080600010708800f1
:1058200001708000b0ff2f000080600000708800d1
:1058300021708000b0ff2f00008060001070880091
:105840000a70ef00280037001e4078000004e000d6
:1058500008003d0001738000f0ef2f000080600021
:1058600000738800207380000080a00010738800ff
:105870000800370001738000f0ef2f000080600007
:105880000073880021738000f0ef2f00008060001b
:105890001073880001738000f0fb2f00008060000f
:1058a0000073880021738000f0fb2f0000806000ef
:1058b000107388001e40780000404000004f7800c0
:1058c00001738000f0fb2f000080600000738800ef
:1058d000207380000060a000107388000ad0bf0011
:1058e0000040e8000af0b7000ad0bf00e74f5000c0
:1058f000d5ff360001708000b0ff2f0000806000ef
:1059000000708800207080000020a00010708800c7
:105910000080fa00000006000200fa00004f780044
:105920001e4078000004e00003003200f00f200069
:1059300090808800010037001230ef000080fa00ec
:10594000000006000a00fa004047980051479800fe
:105950006247980073479800044f9800154f9800cd
:10596000de4190006e419000de4090004e4090007d
:105970002afd0700fe4190006e419000de4090003d
:105980006e40900025fd0700fe4190006e419000a2
:10599000fe4090004e40900020fd0700fe41900028
:1059a0004e419000de4090004e4090001bfd0700ed
:1059b0000e4890000004e0003b003a00ce4090000a
:1059c0006e40900080cf500006003600ce40900020
:1059d000014f78006e4090000040e80010479800aa
:1059e00005003700ee409000014f78004e409000d7
:1059f0000040e80010479800de4090007e40900094
:105a000080cf500006003600de409000214798000d
:105a10007e4090000040e8003047980005003700c5
:105a2000fe409000214798005e4090000040e80052
:105a300030479800be40900051479800160037004c
:105a40009e409000414798000d0037001e4890008e
:105a50000004e00004003200de4090004e40900060
:105a6000e4fd070003003700de4090004e40900048
:105a700036fe07004e4090000040e8004047980086
:105a80004e4090009e4f5000f0ff39005e40900065
:105a90000040e80050479800de4090002e40900003
:105aa00080cf5000e6ff39000080fa0000000600b9
:105ab0000000fa001070ef000f70ef000e70ef00a2
:105ac00001708000b0ff2f0000806000007088002f
:105ad000207080000020a0001070880001738000fa
:105ae000f0ef2f00008060000073880021738000b9
:105af000f0ef2f00008060001073880001738000b9
:105b0000f0fb2f000080600000738800207380008d
:105b10000060a000107388000170800070ff2f00eb
:105b20000080600000708800207080000030a000bd
:105b30001070880001708000f0fe2f00008060006f
:105b40000070880021708000f0fe2f00008060004f
:105b50001070880000e62a00a10020002222070021
:105b600001708000f0fe2f0000806000007088004f
:105b7000207080000040a0001070880000e62a001d
:105b8000a10020001822070020cab3001aff070056
:105b900000cab30018ff070080ccb30016ff07004f
:105ba00000c4b30014ff0700c0c2b30012ff070017
:105bb000007e2600510320000b220700e0c2b30044
:105bc0000dff0700007e260051032000062207007b
:105bd000f0c2b30008ff0700007e2600510320003a
:105be0000122070040c2b30003ff070060cab300f0
:105bf00001ff070010c8b300fffe070070c0b3002c
:105c0000fdfe0700f0cab300fbfe070000fc2c00fd
:105c1000a1062000f421070050cab300f6fe0700d9
:105c200000fc2c00a1062000ef21070000fc2c0046
:105c3000a1062000ec21070040cab300eefe0700d9
:105c4000f00f2000908088000c30ef00b1fe0700bc
:105c50008040eb000040eb0037fd07000080fa00b9
:105c6000000006000400fa00000f780011079800f9
:105c70009e00780090c428009e01900001017800e9
:105c800091002000a5f707000080fa000000060040
:105c90000400fa00000f7800110798009e007800b9
:105ca00020c528009e01900001017800910020008d
:105cb0009af707000080fa00000006000200fa00d0
:105cc00020002000000f78001e0078000080fa00fd
:105cd000000006000400fa00d3c0b3000200220056
:105ce00001e1200020e1200068ef07000000e00053
:105cf0000300320010c0b3003047980002003700a4
:105d00000040eb00304798000000eb00000f7800e7
:105d1000be4090002147980019003700001721006d
:105d200011002000b0210700d3c0b3000200220000
:105d300001e1200020e1200054ef07000000e00016
:105d40000300320010c0b300304798000200370053
:105d50000040eb0030479800be4090002e4090007d
:105d600080cf500002003a001e0fe800020037000a
:105d70000000eb00000f7800be4090002147980023
:105d80001e007800e90f5000e4ff36003e4090000e
:105d90000080fa00000006000600fa0000c0eb00d8
:105da000004f78000100370000000000d3c0b300ae
:105db0000200220001e1200020e1200033ef070073
:105dc000004f78000000eb00100798009e4078001c
:105dd00041479800150037000017210011002000ee
:105de00081210700d3c0b3000200220001e120009e
:105df00020e1200025ef0700004f78004e40900082
:105e00009e40780080cf500004003a001e009000b1
:105e10000000e80010079800020037000000eb00c7
:105e2000100798009e407800414798001e0090009f
:105e3000e90f5000e8ff36001e4078000004e00043
:105e4000d9ff3200000000000080fa0000000600c8
:105e50000600fa000100370000000000d3c0b300c4
:105e60000200220001e1200020e1200007ef0700ee
:105e7000004f78000000eb00100798009e4078006b
:105e8000414798001500370000172100110020003d
:105e900055210700d3c0b3000200220001e1200019
:105ea00020e12000f9ee0700004f78004e409000fe
:105eb0009e40780080cf500004003a001e00900001
:105ec0000000e80010079800020037000000eb0017
:105ed000100798009e407800414798001e009000ef
:105ee000e90f5000e8ff36001e4078000004e00093
:105ef000d9ff3a00000000000080fa000000060010
:105f00001000fa004007980051079800424f98008f
:105f1000534f9800644f98000040eb006047980092
:105f20006e489000e14f500001003a001870ef00f9
:105f300018d0bf000080fb00200798006e0007000b
:105f4000104798003a0037001e4090000004e0001f
:105f5000350032005e489000e14f500003003a00e7
:105f60009a000700004f780013003700f18080008e
:105f70002e00900000804000100798009e009000c6
:105f8000f0ff2000808f5000040036009e0090003b
:105f900000002f000080400010079800012d210014
:105fa0001e00900000804000104f78002e009000ee
:105fb0000000e800200798009e80fb0018d0bf007a
:105fc0000080fb004e01900000004100104078006e
:105fd0000000fb00808f50000e003a0018d0bf0078
:105fe0000040e80018f0b7008101210091407800de
:105ff0004e48900080cf500007003a001870ef0024
:106000000040eb00404f980010c0b300604798007c
:10601000010037001870ef001e4090000040e900ba
:1060200010479800020037000040eb00404f9800f6
:1060300018d0bf00ce48900080cf5000c2ff3e0075
:106040006e4090000080fa00000006000a00fa008e
:10605000100798002107980062479800734798003e
:10606000440798000040eb00004f78000040eb0030
:10607000104798004e0090000000e00015003a0024
:1060800010c0b300004f78000080eb00400798007c
:10609000100037000017210011002000d220070057
:1060a0001e4078000004e00003003a004e0090001b
:1060b0000000e900400798000042eb00fe4190001c
:1060c0006e419000ae0090001e0090008cff070013
:1060d000104798004e0090000000e00003003200de
:1060e0001e4090000004e000eaff32001e409000d5
:1060f0000080fa00000006000200fa00b180800073
:10610000f0808000808f500004003600b180800055
:10611000f0808000008f50000c003700b1808000bc
:10612000f0808000808f500006003100b180800038
:10613000f08080008080500000002100008f40002f
:10614000020037000000eb00000f78001e0078000e
:106150000080fa00000006000600fa0040479800a0
:10616000b0808000000fe800f0ff20009e00780063
:10617000808f5000020036000000eb00000f780016
:10618000f08080009e007800808f50000a0032006e
:10619000b0808000012d210000804000ce409000a2
:1061a000014878009e007800b180880010c0b300dc
:1061b00020479800020037000040eb00204798007d
:1061c0002e4090000080fa00000006000400fa0053
:1061d000f1808000b0808000808f5000110032007c
:1061e000f0808000012d21000080400010407800e8
:1061f0000080fb0010079800f0808000000fe8008e
:10620000f0ff20009e007800808f500002003600d2
:106210000000eb00000f78009e007800f1808800fd
:1062200002003700f00f2000100798001e009000b9
:106230000080fa00000006000000fa001630ef00af
:106240001e30ef000080fa00000006001000fa0087
:106250004007980051079800424f9800534f98000c
:10626000644f98000040eb00604798006e48900033
:10627000e14f500001003a002270ef0022d0bf0031
:106280000080fb00200798006e0007001047980070
:106290003a0037001e4090000004e0003500320054
:1062a0005e489000e14f500003003a009a0007005a
:1062b000004f780013003700418180002e009000cd
:1062c00000804000100798009e009000f0ff200022
:1062d000808f5000040036009e00900000002f00c8
:1062e0000080400010079800012d22001e00900041
:1062f00000804000104f78002e0090000000e80061
:10630000200798009e80fb0022d0bf000080fb0089
:106310004e01900000004100104078000000fb009a
:10632000808f50000e003a0022d0bf000040e800ed
:1063300022f0b70021022100914078004e489000e1
:1063400080cf500007003a002270ef000040eb00c1
:10635000404f980010c0b30060479800010037001c
:106360002270ef001e4090000040e90010479800a6
:10637000020037000040eb00404f980022d0bf00e1
:10638000ce48900080cf5000c2ff3e006e4090008b
:106390000080fa00000006000a00fa0010079800ca
:1063a00021079800624798007347980044079800b7
:1063b0000040eb00004f78000040eb0010479800d1
:1063c0004e0090000000e00015003a0010c0b3003d
:1063d000004f78000080eb00400798001000370065
:1063e0000017210011002000ff1f07001e40780049
:1063f0000004e00003003a004e0090000000e900b5
:10640000400798000042eb00fe4190006e41900072
:10641000ae0090001e0090008cff0700104798000f
:106420004e0090000000e000030032001e4090008b
:106430000004e000eaff32001e4090000080fa00f5
:10644000000006000200fa00018180004081800007
:10645000808f500004003600018180004081800060
:10646000008f50000c0037000181800040818000c7
:10647000808f500006003100018180004081800043
:106480008080500000002100008f40000200370093
:106490000000eb00000f78001e0078000080fa007a
:1064a000000006000600fa004047980000818000c6
:1064b000000fe800f0ff20009e007800808f500061
:1064c000020036000000eb00000f780040818000e1
:1064d0009e007800808f50000a003200008180000a
:1064e000012d220000804000ce409000014878003d
:1064f0009e0078000181880010c0b30020479800fa
:10650000020037000040eb00204798002e4090002a
:106510000080fa00000006000400fa0041818000bb
:1065200000818000808f5000110032004081800087
:10653000012d220000804000104078000080fb0008
:106540001007980040818000000fe800f0ff200055
:106550009e007800808f5000020036000000eb00a3
:10656000000f78009e00780041818800020037000b
:10657000f00f2000100798001e0090000080fa0025
:10658000000006000400fa004181800000818000c4
:10659000808f50001200320040818000012d2200c7
:1065a00000804000104078000080fb001007980039
:1065b000408180000000e800000f7800f0ff20001c
:1065c0009e007800808f5000020034000000eb0035
:1065d000000f78001e00780040818800020037001c
:1065e0000080eb00100798001e0090000080fa0069
:1065f000000006000000fa002030ef002830ef0015
:106600000080fa00000006000400fa00000f780085
:10661000110798000080fa00000006000600fa004a
:1066200010079800210798001e009000ae0090000f
:106630000cee0700104798000040eb00004f780078
:10664000070037001e80fb009e0090000080400085
:10665000104078000000fb00fff807001e4fe80024
:106660001e4090009e40780080cf5000f5ff39001a
:106670000080fa00000006001800fa00200f9800c1
:10668000310f98000e0078004301200000017800cf
:106690002e089000be0890006df007004101200018
:1066a0000e007800ddff07000080fa000000060001
:1066b0001800fa00200f9800310f98000e007800a3
:1066c00043012000000178002e089000be089000d1
:1066d000f3ef0700410120000e007800cfff070014
:1066e0000080fa00000006000200fa00000f7800a7
:1066f0001e007800d8f807000080fa0000000600ad
:106700000200fa00004f78001e4078003ff90700b1
:106710000080fa00000006000e00fa004007980012
:1067200051079800424f9800534f98000040eb00eb
:10673000004f7800f00f2000100798001700370076
:106740004e489000d2f8070020079800ae00900055
:106750001e009000808f500009003d002e00900028
:10676000604798001e80fb00ce0090000080400033
:10677000ee409000014878001e4fe8000700370007
:106780001e80fb00ce009000008040008040eb00a7
:1067900001487800de489000014f78005e48900084
:1067a0009e40780080cf5000e5ff39000080fa005d
:1067b000000006000000fa008df807000080fa00d3
:1067c000000006000400fa00100798001e00900068
:1067d00000407800aef80700000f78001e00780037
:1067e0000080fa00000006000a00fa00004f98003e
:1067f0000e4890000080fb004900dd006101b900f7
:10680000000020002100200002004000838048009a
:10681000008fbe009e007800210798000000200035
:10682000f10720001e0178009e019000020278000e
:106830000301780080017800010078000302620003
:10684000000061008000eb00c000dd0000002000bf
:106850000001be006120b80000017100818171005b
:106860004018de0001002000000078006039880038
:10687000ae00900051398800110280003107980065
:1068800011028000000e200001007000100288003c
:1068900030002400403988005005200070398800fd
:1068a000a00a20007039880029e7a8000000000035
:1068b00000000000be0090001102880000000000ef
:1068c000403980000000e000fdff35000080fa0044
:1068d000000006000e00fa00404f9800514f98004b
:1068e0004e4890000080fb004900dd006101b900c6
:1068f00000002000210020000201400083814800a8
:106900005e4890000080fb0000004000cf80de0069
:106910000200400083804800008fbe00a00280007b
:10692000404798009e007800310798000000200042
:10693000f10720001e0178009e01900002027800fd
:1069400003017800800178000100780003026200f2
:10695000000061008000eb00c000dd0000002000ae
:106960000001be006120b80000017100818171004a
:106970004018de000100200000007800a00288001e
:106980003e0090001080ba008000eb0040079800a5
:10699000510798004e009000de009000c000dd001e
:1069a0000000200040079800510798003e0090002a
:1069b0001000ba006101b800f0ff2f0001002000b4
:1069c000020278000301780080017800010078005d
:1069d00003026200000061008000eb00c000dd00e7
:1069e000000020000001be006120b800000171001d
:1069f000818171004e009000de0090000200700066
:106a00008380700040079800510798004e40900026
:106a10000080fb00a00288004e009000de00900085
:106a20000080fa00000006001400fa00604f980091
:106a3000714f980002579800130f98006e4890000d
:106a40000080fb004900dd006101b900000020006a
:106a50002100200002014000838148007e48900010
:106a60000080fb0000004000cf80de0002004000fc
:106a700083804800008fbe00a0028000404798003d
:106a80009e0078003107980000002000f1072000e8
:106a90001e0178009e019000020278000301780038
:106aa00080017800010078000302620000006100ac
:106ab0008000eb00c000dd00000020000001be00ef
:106ac0006120b80000017100818171004018de0072
:106ad0000100200000007800a0028800a0028000d1
:106ae00060398800be009000c0ff2f000080600069
:106af000503988003e0090000010a2003007980036
:106b00003e0090001080ba00004f98003e009000b8
:106b10001000ba00500798003e009000630060002b
:106b200030079800a00f2000a00288003e009000cf
:106b3000de0090000108bb000e4890008080fb0042
:106b40003e0090000188bb003e0090000010a200b3
:106b5000300798003e0090009e0890000108bb009e
:106b60000e5090008080fb003e0090000188bb002a
:106b7000100024004039880011028000610798004d
:106b800011028000000e2000010070001002880039
:106b90005005200070398800a00a20007039880054
:106ba00029e7a8000000000000000000000000002d
:106bb0000000000029e7af00feff3700ee00900064
:106bc000110288004e4090000080fb00a002880067
:106bd0000080fa00000006000a00fa00004f98004a
:106be0000e48900063406000e34f50002d003a00d3
:106bf0000e4890000080fb004200de00004078005c
:106c00000080fb004200dd00000f780010c0b300e0
:106c100020479800110037001e00780000407800df
:106c20008040eb002bff07002007980031079800f9
:106c30002e009000be0090004008de000100200001
:106c4000e00f5000e08f580002003a001e0fe800ed
:106c5000020037000040eb00204798000e489000eb
:106c60000080fb009e0f5000030036002e40900075
:106c70000004e000e8ff3a002e4090000004e0002d
:106c8000110032000e4890000080fb004200de0040
:106c900080407800200020000008dd00d2fe0700c0
:106ca000090037008040eb000e48900009ff070004
:106cb000000f78009e0178000041eb008040eb005f
:106cc0000e48900058ff07000080fa000000060000
:106cd0000a00fa00004f98000040eb00004f7800d7
:106ce00091818000000d2d00808f50000200320045
:106cf000d3000700004f78000080eb0030079800b9
:106d00001e4078000004e00047003a0034d0bf0085
:106d10000040e90010479800f0ff2f00f10f20001d
:106d20001007980021079800230037002ed0bf00dd
:106d30009e409000e7fe070010079800210798008a
:106d40001e009000ae0090004009de00030020000d
:106d5000f00f2000010020000202780003017800fb
:106d600080017800010078000302620000006100e9
:106d70008000eb00c000dd00000020000001be002c
:106d80006120b80000017100818171000e489000ff
:106d90000080fb008000eb00800f5100818f5900c4
:106da00002003a009e009000310798001e409000bb
:106db0000040e900104798001e4090000004e000e9
:106dc000190032001e009000ae0090004009de0065
:106dd00003002000f00f20000100200002027800d4
:106de000030178008001780001007800030262004e
:106df000000061008000eb00c000dd00000020000a
:106e00000001be006120b8000001710081817100a5
:106e10000e4890000080fb008000eb00800f5100c6
:106e2000818f5900c1ff3a003e0090000080fa00b7
:106e3000000006000200fa000040eb00004f78005e
:106e4000040037001e40780067fe07009e4078006f
:106e500064cf40001e407800e74f5000f9ff360035
:106e60000080fa00000006000800fa004047980081
:106e7000310798000040eb00004f78000000eb0065
:106e80001007980091818000000d2d00808f500028
:106e9000020032006a000700004f78000040eb005b
:106ea000104798001e4078000004e00018003a00e7
:106eb0004e409000e44f400015003e004e409000d0
:106ec00083ff0700100798009e0090003e0090008e
:106ed000808f500012003200410321009140780061
:106ee0002ed0bf00be0190004e419000cefe0700a4
:106ef00034d0bf000040e80034f0b70034d0bf0009
:106f0000e34f40000500360008000700040037008a
:106f100000c0eb001047980001003700000000009f
:106f20001e4090000080fa00000006000800fa00f1
:106f30000040eb00304798000040eb00004f780025
:106f40000040eb00404798000040eb0010479800dd
:106f50000040eb0020479800e102210091407800ba
:106f600031479800420321001241780042479800bf
:106f70003e409000004fe80010c0b300104798005a
:106f80001e407800e74f5000020036000040eb0042
:106f9000004f78000040eb002047980011003700b8
:106fa0002e4090004aff0700300798003e009000f6
:106fb000e10f400008003200be0190002e41900019
:106fc0009e4090001e40780097fe07001e409000f3
:106fd0000040e800104798002e4090000040e80074
:106fe000204798002e409000e44f4000ecff360010
:106ff000808180000000e8008001780002cfb300ab
:107000008040eb001e40780087fe07003e40900065
:10701000f1fe07001e417800e1022100824878005d
:107020001e41900041032100824878008081800049
:107030000000e800808188000080fa00000006005f
:107040000800fa000040eb00004f78002e70ef00bf
:107050000040eb00104798000100370000000000de
:107060002ed0bf008040eb001afe070010079800ea
:10707000210798001e019000ae019000f0ff2f0044
:10708000f10f2000020278000301780080017800ef
:107090000100780003026200000061008000eb0044
:1070a000c000dd00000020000001be006120b8002b
:1070b0000001710081817100e00f5100e08f5900e3
:1070c00003003a001e4090000040e800104798007e
:1070d0001e019000ae019000f0ff2f00f10f200084
:1070e000800f5100818f5900070032001e00900070
:1070f000ae0090004008de0001002000e00f5000cc
:10710000e08f580004003a002ed0bf000040e80095
:107110002ef0b700020037001e009000808188002a
:107120002ed0bf00e74f500010003e001e0190001f
:10713000ae019000f0ff2f00f10f2000800f5100f2
:10714000818f5900070032001e009000ae009000b1
:107150004008de0001002000e00f5000e08f5800e2
:1071600002003a0010002000010037000000eb0090
:107170000000e000b9ff3a001e409000e84f5000c8
:107180000b003a002bff07002e70ef0010002000cc
:1071900080818800818180002ed0bf00810178002d
:1071a00002cfb3008040eb001ffe0700370037001e
:1071b0002ed0bf00e74f50002b003e002ed0bf0066
:1071c0000004e0000e003a008040eb0070c0b30005
:1071d000c0fd070010079800210798001e019000cd
:1071e000ae019000f0ff2f00f10f2000800f510042
:1071f000818f59000200320070c0b3007afd070091
:107200002ed0bf00e54f500020003e002ed0bf0022
:107210000040e8008040eb00aefd0700100798003a
:10722000210798001e009000ae0090004009de008b
:1072300003002000000f200001002000800f5100fb
:10724000818f590011003a002ed0bf0066fd070063
:107250002ed0bf000040e8002ef0b7001e009000c6
:1072600080818800090037002e70ef001000200098
:1072700080818800818180002ed0bf00810178004c
:1072800002cfb3008040eb00e7fd070010c0b30061
:10729000004f780001003700000000002ed0bf0032
:1072a0009e4078008bfd070010079800210798008a
:1072b0001e019000ae019000f0ff2f00f10f2000a2
:1072c000800f5100818f5900010032001e4fe800ed
:1072d0001e407800e44f400009003e001e0190006f
:1072e000ae019000f0ff2f00f10f2000800f510041
:1072f000818f590002003200100020000100370089
:107300000000eb000000e000e3ff3a00000d2d005c
:10731000908188001e417800410321008248780056
:107320000040eb00604798006e4090000080fa003b
:10733000000006000200fa0010c0b300cbf2070004
:10734000000f78001e0078000080fa0000000600a0
:107350000600fa0040479800514798000000eb00f3
:10736000000f78000040eb00204798005e4090003e
:107370000004e0001f003200130037000040eb0063
:10738000baf207001e0f40002e4090000040e800b7
:10739000204798005e4090000080fb008000eb00da
:1073a000620420008289b900e002b90084017800fb
:1073b00003014100630420000300b8000101410003
:1073c00082007800081c0700ae4090004e409000fc
:1073d00080cf5000e9ff39000a0037000040eb0081
:1073e000a2f207001e0f40002e4090000040e8006f
:1073f00020479800ae4090004e40900080cf500053
:10740000f6ff39002e4090000080fb009e007800bf
:1074100000017800110009008280d80030479800f0
:107420003e4090000080fa00000006000800fa00cc
:10743000200798003107980066000700008fbe0003
:107440002e0090003e0290008001780062c0b300e0
:107450001e0078009e00900060ee07000080fa0099
:10746000000006000400fa00204798003147980009
:1074700083c2b3000041eb0031c0b30050c1b30080
:10748000ccf10700be4090002e409000b0ff0700f6
:10749000004f78008df207001e4078000080fa004f
:1074a000000006000a00fa00004f9800114f9800f3
:1074b0006000b800008fbe000040eb00404798001d
:1074c0001e4890000004e000230032001500370041
:1074d00010c0b30065f207008000eb001e0f4000f3
:1074e0005e9748004e4090000040e80040479800fa
:1074f0001e4890000080fb008000eb00620420002a
:107500008289b900e002b9008401780003014100da
:10751000630420000300b8000101410082007800ec
:10752000b11b0700ce4090000e48900080cf500065
:10753000e7ff39000c00370010c0b3004bf2070022
:107540008000eb001e0f40005e9748004e40900008
:107550000040e80040479800ce4090000e48900060
:1075600080cf5000f4ff39004e4090000080fb00b7
:107570008000eb000001be001e0078009e0090001d
:1075800045e70700300798003e0090000080fa00b1
:10759000000006000400fa002047980031479800d8
:1075a00083c2b3000041eb0031c0b30050c1b3004f
:1075b00080f10700be4090002e409000b9ff070008
:1075c000000f780041f207001e0078000080fa00ea
:1075d000000006000600fa0083c2b3000041eb0081
:1075e00031c0b30050c1b30072f1070010c0b30046
:1075f0001ef20700000f78001e0078008000eb00ec
:1076000094e607001283220033ad2300eee6070064
:1076100010079800210798002cf207001e00900028
:10762000ae0090000080fa00000006000000fa00a2
:1076300083c2b3000041eb0031c0b30050c1b300be
:107640005cf107000080fa00000006000200fa006a
:107650000040eb0005f20700004f78001e40780064
:107660000080fa00000006000200fa0083c2b300a6
:107670000041eb0031c0b30050c1b3004df1070031
:1076800010c0b300f9f10700000f78000ff20700f7
:107690001e0078000080fa00000006000000fa00da
:1076a0000af207000080fa00000006000200fa005b
:1076b00083c2b3000041eb0031c0b30050c1b3003e
:1076c0003cf107000040eb00e8f10700004f7800b4
:1076d000fef107001e4078000080fa00000006005e
:1076e0000200fa0010c0b300e0f10700000f7800bc
:1076f0001e0078000080fa00000006000600fa0074
:1077000040479800514798000000eb00000f7800b8
:107710000040eb00204798005e4090000004e0002d
:107720001f003200130037000040eb00cff10700cc
:107730001e0f40002e4090000040e80020479800b7
:107740005e4090000080fb008000eb00620420009f
:107750008289b900e002b900840178000301410088
:10776000630420000300b80001014100820078009a
:107770001d1b0700ae4090004e40900080cf50008f
:10778000e9ff39000a0037000040eb00b7f10700bd
:107790001e0f40002e4090000040e8002047980057
:1077a000ae4090004e40900080cf5000f6ff390070
:1077b0002e4090000080fb009e00780000017800c1
:1077c000110009008280d800304798003e409000a8
:1077d0000080fa00000006000800fa002007980068
:1077e0003107980066000700008fbe002e00900051
:1077f0003e0290008001780062c0b3001e00780055
:107800009e00900075ed07000080fa000000060061
:107810000400fa00204798003147980023c0b300c5
:107820000041eb0011c0b30030c0b300e1f007002d
:10783000be4090002e409000b0ff0700004f78003f
:10784000a2f107001e4078000080fa000000060048
:107850000a00fa00004f9800114f98006000b8002d
:10786000008fbe000040eb00404798001e4890008b
:107870000004e000230032001500370010c0b30000
:107880007af107008000eb001e0f40005e97480071
:107890004e4090000040e800404798001e4890008d
:1078a0000080fb008000eb00620420008289b900a8
:1078b000e002b90084017800030141006304200064
:1078c0000300b8000101410082007800c61a0700d9
:1078d000ce4090000e48900080cf5000e7ff390066
:1078e0000c00370010c0b30060f107008000eb000f
:1078f0001e0f40005e9748004e4090000040e80098
:1079000040479800ce4090000e48900080cf500035
:10791000f4ff39004e4090000080fb008000eb0037
:107920000001be001e0078009e0090005ae607008d
:10793000300798003e0090000080fa00000006002a
:107940000400fa00204798003147980023c0b30094
:107950000041eb0011c0b30030c0b30095f0070048
:10796000be4090002e409000b9ff0700000f780045
:1079700056f107001e0078000080fa0000000600a3
:107980000600fa0023c0b3000041eb0011c0b300b1
:1079900030c0b30087f0070010c0b30033f1070018
:1079a000000f78001e0078008000eb00a9e50700ba
:1079b000629f200003aa230003e607001007980037
:1079c0002107980041f107001e009000ae009000d2
:1079d0000080fa00000006000000fa0023c0b30097
:1079e0000041eb0011c0b30030c0b30071f00700dc
:1079f0000080fa00000006000200fa000040eb00e0
:107a00001af10700004f78001e4078000080fa004d
:107a1000000006000200fa0023c0b3000041eb00a2
:107a200011c0b30030c0b30062f0070010c0b30053
:107a30000ef10700000f780024f107001e00780007
:107a40000080fa00000006000000fa001ff10700a5
:107a50000080fa00000006000200fa0023c0b30014
:107a60000041eb0011c0b30030c0b30051f007007b
:107a70000040eb00fdf00700004f780013f1070015
:107a80001e4078000080fa00000006000200fa00a4
:107a900010c0b300f5f00700000f78001e0078005a
:107aa0000080fa00000006000600fa004047980037
:107ab000514798000000eb00000f78000040eb00f9
:107ac000204798005e4090000004e0001f00320054
:107ad000130037000040eb00e4f007001e0f4000e9
:107ae0002e4090000040e800204798005e40900043
:107af0000080fb008000eb00620420008289b90056
:107b0000e002b90084017800030141006304200011
:107b10000300b8000101410082007800321a07001a
:107b2000ae4090004e40900080cf5000e9ff3900f9
:107b30000a0037000040eb00ccf007001e0f4000a9
:107b40002e4090000040e80020479800ae40900092
:107b50004e40900080cf5000f6ff39002e4090003c
:107b60000080fb009e0078000001780011000900f1
:107b70008280d800304798003e4090000080fa0094
:107b8000000006000800fa0020079800310798005e
:107b900066000700008fbe002e0090003e0290009d
:107ba0008001780062c0b3001e0078009e00900043
:107bb0008aec07000080fa00000006000400fa00ca
:107bc000204798003147980033c2b3000041eb00d2
:107bd00011c0b30040c1b300f6ef0700be409000f3
:107be0002e409000b0ff0700004f7800b7f007006c
:107bf0001e4078000080fa00000006000a00fa002b
:107c0000004f9800114f98006000b800008fbe0030
:107c10000040eb00404798001e4890000004e00040
:107c2000230032001500370010c0b3008ff00700aa
:107c30008000eb001e0f40005e9748004e40900011
:107c40000040e800404798001e4890000080fb007c
:107c50008000eb00620420008289b900e002b900d4
:107c60008401780003014100630420000300b80090
:107c70000101410082007800db190700ce4090002e
:107c80000e48900080cf5000e7ff39000c0037000d
:107c900010c0b30075f007008000eb001e0f40001d
:107ca0005e9748004e4090000040e8004047980032
:107cb000ce4090000e48900080cf5000f4ff390075
:107cc0004e4090000080fb008000eb000001be00f1
:107cd0001e0078009e0090006fe5070030079800b6
:107ce0003e0090000080fa00000006000400fa0048
:107cf000204798003147980033c2b3000041eb00a1
:107d000011c0b30040c1b300aaef0700be4090000d
:107d10002e409000b9ff0700000f78006bf00700bd
:107d20001e0078000080fa00000006000600fa003d
:107d300033c2b3000041eb0011c0b30040c1b30037
:107d40009cef070010c0b30048f00700000f780058
:107d50001e0078008000eb00bee40700629f200058
:107d600003aa230018e507001007980021079800d0
:107d700056f007001e009000ae0090000080fa0050
:107d8000000006000000fa0033c2b3000041eb001f
:107d900011c0b30040c1b30086ef07000080fa00b5
:107da000000006000200fa000040eb002ff0070080
:107db000004f78001e4078000080fa0000000600a6
:107dc0000200fa0033c2b3000041eb0011c0b3005f
:107dd00040c1b30077ef070010c0b30023f00700e5
:107de000000f780039f007001e0078000080fa00cc
:107df000000006000000fa0034f007000080fa00de
:107e0000000006000200fa0033c2b3000041eb009c
:107e100011c0b30040c1b30066ef07000040eb00a3
:107e200012f00700004f780028f007001e4078008d
:107e30000080fa00000006000200fa0010c0b30043
:107e40000af00700000f78001e0078000080fa009a
:107e5000000006000600fa004047980051479800cd
:107e60000000eb00000f78000040eb002047980076
:107e70005e4090000004e0001f0032001300370055
:107e80000040eb00f9ef07001e0f40002e4090006d
:107e90000040e800204798005e4090000080fb0012
:107ea0008000eb00620420008289b900e002b90082
:107eb0008401780003014100630420000300b8003e
:107ec000010141008200780047190700ae40900090
:107ed0004e40900080cf5000e9ff39000a00370083
:107ee0000040eb00e1ef07001e0f40002e40900025
:107ef0000040e80020479800ae4090004e409000bf
:107f000080cf5000f6ff39002e4090000080fb002b
:107f10009e00780000017800110009008280d800de
:107f2000304798003e4090000080fa0000000600b4
:107f30000800fa0020079800310798006600070043
:107f4000008fbe002e0090003e029000800178005d
:107f500062c0b3001e0078009e0090009feb0700f7
:107f60000080fa00000006000400fa002047980094
:107f70003147980033c2b3000041eb0011c0b30099
:107f8000a0c0b3000bef0700be4090002e40900051
:107f9000b0ff0700004f7800ccef07001e407800cc
:107fa0000080fa00000006000a00fa00004f980066
:107fb000114f98006000b800008fbe000040eb0039
:107fc000404798001e4890000004e0002300320063
:107fd0001500370010c0b300a4ef07008000eb00cd
:107fe0001e0f40005e9748004e4090000040e800a1
:107ff000404798001e4890000080fb008000eb0086
:10800000620420008289b900e002b900840178008e
:1080100003014100630420000300b8000101410096
:1080200082007800f0180700ce4090000e489000c3
:1080300080cf5000e7ff39000c00370010c0b300bc
:108040008aef07008000eb001e0f40005e9748009b
:108050004e4090000040e80040479800ce4090001d
:108060000e48900080cf5000f4ff39004e40900041
:108070000080fb008000eb000001be001e007800c5
:108080009e00900084e40700300798003e009000b6
:108090000080fa00000006000400fa002047980063
:1080a0003147980033c2b3000041eb0011c0b30068
:1080b000a0c0b300bfee0700be4090002e4090006d
:1080c000b9ff0700000f780080ef07001e0078005e
:1080d0000080fa00000006000600fa0033c2b30078
:1080e0000041eb0011c0b300a0c0b300b1ee070027
:1080f00010c0b3005def0700000f78001e0078008d
:108100008000eb00d3e30700629f200003aa230056
:108110002de4070010079800210798006bef070077
:108120001e009000ae0090000080fa0000000600e3
:108130000000fa0033c2b3000041eb0011c0b300ed
:10814000a0c0b3009bee07000080fa00000006000c
:108150000200fa000040eb0044ef0700004f7800f7
:108160001e4078000080fa00000006000200fa00bd
:1081700033c2b3000041eb0011c0b300a0c0b30094
:108180008cee070010c0b30038ef0700000f780036
:108190004eef07001e0078000080fa000000060085
:1081a0000000fa0049ef07000080fa000000060016
:1081b0000200fa0033c2b3000041eb0011c0b3006b
:1081c000a0c0b3007bee07000040eb0027ef0700e4
:1081d000004f78003def07001e4078000080fa0055
:1081e000000006000200fa0010c0b3001fef0700f5
:1081f000000f78001e0078000080fa0000000600e2
:108200000600fa0040479800514798000000eb0034
:10821000000f78000040eb00204798005e4090007f
:108220000004e0001f003200130037000040eb00a4
:108230000eef07001e0f40002e4090000040e800a7
:10824000204798005e4090000080fb008000eb001b
:10825000620420008289b900e002b900840178003c
:1082600003014100630420000300b8000101410044
:10827000820078005c180700ae4090004e409000ed
:1082800080cf5000e9ff39000a0037000040eb00c2
:10829000f6ee07001e0f40002e4090000040e80060
:1082a00020479800ae4090004e40900080cf500094
:1082b000f6ff39002e4090000080fb009e00780001
:1082c00000017800110009008280d8003047980032
:1082d0003e4090000080fa00000006000800fa000e
:1082e000200798003107980066000700008fbe0045
:1082f0002e0090003e0290008001780062c0b30022
:108300001e0078009e009000b4ea07000080fa008a
:10831000000006000400fa0020479800314798004a
:1083200033c2b3000041eb0011c0b30090c0b300f2
:1083300020ee0700be4090002e409000b0ff0700e6
:10834000004f7800e1ee07001e4078000080fa0040
:10835000000006000a00fa00004f9800114f980034
:108360006000b800008fbe000040eb00404798005e
:108370001e4890000004e000230032001500370082
:1083800010c0b300b9ee07008000eb001e0f4000e4
:108390005e9748004e4090000040e800404798003b
:1083a0001e4890000080fb008000eb00620420006b
:1083b0008289b900e002b90084017800030141001c
:1083c000630420000300b80001014100820078002e
:1083d00005180700ce4090000e48900080cf500056
:1083e000e7ff39000c00370010c0b3009fee070014
:1083f0008000eb001e0f40005e9748004e4090004a
:108400000040e80040479800ce4090000e489000a1
:1084100080cf5000f4ff39004e4090000080fb00f8
:108420008000eb000001be001e0078009e0090005e
:1084300099e30700300798003e0090000080fa00a2
:10844000000006000400fa00204798003147980019
:1084500033c2b3000041eb0011c0b30090c0b300c1
:10846000d4ed0700be4090002e409000b9ff0700f9
:10847000000f780095ee07001e0078000080fa00db
:10848000000006000600fa0033c2b3000041eb0012
:1084900011c0b30090c0b300c6ed070010c0b30018
:1084a00072ee0700000f78001e0078008000eb00dd
:1084b000e8e20700629f200003aa230042e30700ce
:1084c000100798002107980080ee07001e0090001a
:1084d000ae0090000080fa00000006000000fa00e4
:1084e00033c2b3000041eb0011c0b30090c0b30031
:1084f000b0ed07000080fa00000006000200fa005c
:108500000040eb0059ee0700004f78001e40780055
:108510000080fa00000006000200fa0033c2b30037
:108520000041eb0011c0b30090c0b300a1ed070003
:1085300010c0b3004dee0700000f780063ee070097
:108540001e0078000080fa00000006000000fa001b
:108550005eee07000080fa00000006000200fa004c
:1085600033c2b3000041eb0011c0b30090c0b300b0
:1085700090ed07000040eb003cee0700004f780054
:1085800052ee07001e4078000080fa00000006004e
:108590000200fa0010c0b30034ee0700000f7800ac
:1085a0001e0078000080fa00000006000600fa00b5
:1085b00040479800514798000000eb00000f7800fa
:1085c0000040eb00204798005e4090000004e0006f
:1085d0001f003200130037000040eb0023ee0700bd
:1085e0001e0f40002e4090000040e80020479800f9
:1085f0005e4090000080fb008000eb0062042000e1
:108600008289b900e002b9008401780003014100c9
:10861000630420000300b8000101410082007800db
:1086200071170700ae4090004e40900080cf500080
:10863000e9ff39000a0037000040eb000bee0700ad
:108640001e0f40002e4090000040e8002047980098
:10865000ae4090004e40900080cf5000f6ff3900b1
:108660002e4090000080fb009e0078000001780002
:10867000110009008280d800304798003e409000e9
:108680000080fa00000006000800fa0020079800a9
:108690003107980066000700008fbe002e00900092
:1086a0003e0290008001780062c0b3001e00780096
:1086b0009e009000c9e907000080fa000000060053
:1086c0000400fa00204798003147980033c2b300f5
:1086d0000041eb0011c0b30080c0b30035ed0700ce
:1086e000be4090002e409000b0ff0700004f780081
:1086f000f6ed07001e4078000080fa00000006003a
:108700000a00fa00004f9800114f98006000b8006e
:10871000008fbe000040eb00404798001e489000cc
:108720000004e000230032001500370010c0b30041
:10873000ceed07008000eb001e0f40005e97480062
:108740004e4090000040e800404798001e489000ce
:108750000080fb008000eb00620420008289b900e9
:10876000e002b900840178000301410063042000a5
:108770000300b80001014100820078001a170700c9
:10878000ce4090000e48900080cf5000e7ff3900a7
:108790000c00370010c0b300b4ed07008000eb0000
:1087a0001e0f40005e9748004e4090000040e800d9
:1087b00040479800ce4090000e48900080cf500077
:1087c000f4ff39004e4090000080fb008000eb0079
:1087d0000001be001e0078009e009000aee207007f
:1087e000300798003e0090000080fa00000006006c
:1087f0000400fa00204798003147980033c2b300c4
:108800000041eb0011c0b30080c0b300e9ec0700e9
:10881000be4090002e409000b9ff0700000f780086
:10882000aaed07001e0078000080fa000000060094
:108830000600fa0033c2b3000041eb0011c0b300e0
:1088400080c0b300dbec070010c0b30087ed070069
:10885000000f78001e0078008000eb00fde10700ab
:10886000629f200003aa230057e207001007980028
:108870002107980095ed07001e009000ae009000c3
:108880000080fa00000006000000fa0033c2b300c6
:108890000041eb0011c0b30080c0b300c5ec07007d
:1088a0000080fa00000006000200fa000040eb0021
:1088b0006eed0700004f78001e4078000080fa003f
:1088c000000006000200fa0033c2b3000041eb00d2
:1088d00011c0b30080c0b300b6ec070010c0b300f5
:1088e00062ed0700000f780078ed07001e007800a9
:1088f0000080fa00000006000000fa0073ed070097
:108900000080fa00000006000200fa0033c2b30043
:108910000041eb0011c0b30080c0b300a5ec07001c
:108920000040eb0051ed0700004f780067ed0700b5
:108930001e4078000080fa00000006000200fa00e5
:1089400010c0b30049ed0700000f78001e0078004a
:108950000080fa00000006000600fa004047980078
:10896000514798000000eb00000f78000040eb003a
:10897000204798005e4090000004e0001f00320095
:10898000130037000040eb0038ed07001e0f4000d9
:108990002e4090000040e800204798005e40900084
:1089a0000080fb008000eb00620420008289b90097
:1089b000e002b90084017800030141006304200053
:1089c0000300b8000101410082007800861607000c
:1089d000ae4090004e40900080cf5000e9ff39003b
:1089e0000a0037000040eb0020ed07001e0f40009a
:1089f0002e4090000040e80020479800ae409000d4
:108a00004e40900080cf5000f6ff39002e4090007d
:108a10000080fb009e007800000178001100090032
:108a20008280d800304798003e4090000080fa00d5
:108a3000000006000800fa0020079800310798009f
:108a400066000700008fbe002e0090003e029000de
:108a50008001780062c0b3001e0078009e00900084
:108a6000dee807000080fa00000006000400fa00bb
:108a7000204798003147980033c2b3000041eb0013
:108a800011c0b300f0c0b3004aec0700be40900034
:108a90002e409000b0ff0700004f78000bed07005c
:108aa0001e4078000080fa00000006000a00fa006c
:108ab000004f9800114f98006000b800008fbe0072
:108ac0000040eb00404798001e4890000004e00082
:108ad000230032001500370010c0b300e3ec07009c
:108ae0008000eb001e0f40005e9748004e40900053
:108af0000040e800404798001e4890000080fb00be
:108b00008000eb00620420008289b900e002b90015
:108b10008401780003014100630420000300b800d1
:108b200001014100820078002f160700ce4090001e
:108b30000e48900080cf5000e7ff39000c0037004e
:108b400010c0b300c9ec07008000eb001e0f40000e
:108b50005e9748004e4090000040e8004047980073
:108b6000ce4090000e48900080cf5000f4ff3900b6
:108b70004e4090000080fb008000eb000001be0032
:108b80001e0078009e009000c3e1070030079800a7
:108b90003e0090000080fa00000006000400fa0089
:108ba000204798003147980033c2b3000041eb00e2
:108bb00011c0b300f0c0b300feeb0700be40900050
:108bc0002e409000b9ff0700000f7800bfec0700af
:108bd0001e0078000080fa00000006000600fa007f
:108be00033c2b3000041eb0011c0b300f0c0b300ca
:108bf000f0eb070010c0b3009cec0700000f7800fa
:108c00001e0078008000eb0012e10700629f200048
:108c100003aa23006ce107001007980021079800c1
:108c2000aaec07001e009000ae0090000080fa0041
:108c3000000006000000fa0033c2b3000041eb0060
:108c400011c0b300f0c0b300daeb07000080fa00f7
:108c5000000006000200fa000040eb0083ec070071
:108c6000004f78001e4078000080fa0000000600e7
:108c70000200fa0033c2b3000041eb0011c0b300a0
:108c8000f0c0b300cbeb070010c0b30077ec0700d7
:108c9000000f78008dec07001e0078000080fa00bd
:108ca000000006000000fa0088ec07000080fa00cf
:108cb000000006000200fa0033c2b3000041eb00de
:108cc00011c0b300f0c0b300baeb07000040eb00e6
:108cd00066ec0700004f78007cec07001e4078002f
:108ce0000080fa00000006000200fa0010c0b30085
:108cf0005eec0700000f78001e0078000080fa008c
:108d0000000006000600fa0040479800514798000e
:108d10000000eb00000f78000040eb0020479800b7
:108d20005e4090000004e0001f0032001300370096
:108d30000040eb004dec07001e0f40002e4090005d
:108d40000040e800204798005e4090000080fb0053
:108d50008000eb00620420008289b900e002b900c3
:108d60008401780003014100630420000300b8007f
:108d700001014100820078009b150700ae40900081
:108d80004e40900080cf5000e9ff39000a003700c4
:108d90000040eb0035ec07001e0f40002e40900015
:108da0000040e80020479800ae4090004e40900000
:108db00080cf5000f6ff39002e4090000080fb006d
:108dc0009e00780000017800110009008280d80020
:108dd000304798003e4090000080fa0000000600f6
:108de0000800fa0020079800310798006600070085
:108df000008fbe002e0090003e029000800178009f
:108e000062c0b3001e0078009e009000f3e70700e8
:108e10000080fa00000006000400fa0020479800d5
:108e20003147980033c2b3000041eb0011c0b300da
:108e3000e0c0b3005feb0700be4090002e40900002
:108e4000b0ff0700004f780020ec07001e407800bc
:108e50000080fa00000006000a00fa00004f9800a7
:108e6000114f98006000b800008fbe000040eb007a
:108e7000404798001e4890000004e00023003200a4
:108e80001500370010c0b300f8eb07008000eb00be
:108e90001e0f40005e9748004e4090000040e800e2
:108ea000404798001e4890000080fb008000eb00c7
:108eb000620420008289b900e002b90084017800d0
:108ec00003014100630420000300b80001014100d8
:108ed0008200780044150700ce4090000e489000b4
:108ee00080cf5000e7ff39000c00370010c0b300fe
:108ef000deeb07008000eb001e0f40005e9748008d
:108f00004e4090000040e80040479800ce4090005e
:108f10000e48900080cf5000f4ff39004e40900082
:108f20000080fb008000eb000001be001e00780006
:108f30009e009000d8e00700300798003e009000a7
:108f40000080fa00000006000400fa0020479800a4
:108f50003147980033c2b3000041eb0011c0b300a9
:108f6000e0c0b30013eb0700be4090002e4090001d
:108f7000b9ff0700000f7800d4eb07001e0078004f
:108f80000080fa00000006000600fa0033c2b300b9
:108f90000041eb0011c0b300e0c0b30005eb0700d7
:108fa00010c0b300b1eb0700000f78001e0078007e
:108fb0008000eb0027e00700629f200003aa230047
:108fc00081e007001007980021079800bfeb070019
:108fd0001e009000ae0090000080fa000000060025
:108fe0000000fa0033c2b3000041eb0011c0b3002f
:108ff000e0c0b300efea07000080fa0000000600be
:109000000200fa000040eb0098eb0700004f7800e8
:109010001e4078000080fa00000006000200fa00fe
:1090200033c2b3000041eb0011c0b300e0c0b30095
:10903000e0ea070010c0b3008ceb0700000f7800d7
:10904000a2eb07001e0078000080fa000000060076
:109050000000fa009deb07000080fa000000060007
:109060000200fa0033c2b3000041eb0011c0b300ac
:10907000e0c0b300cfea07000040eb007beb070045
:10908000004f780091eb07001e4078000080fa0046
:10909000000006000200fa0010c0b30073eb0700e6
:1090a000000f78001e0078000080fa000000060023
:1090b0000600fa0040479800514798000000eb0076
:1090c000000f78000040eb00204798005e409000c1
:1090d0000004e0001f003200130037000040eb00e6
:1090e00062eb07001e0f40002e4090000040e80099
:1090f000204798005e4090000080fb008000eb005d
:10910000620420008289b900e002b900840178007d
:1091100003014100630420000300b8000101410085
:1091200082007800b0140700ae4090004e409000de
:1091300080cf5000e9ff39000a0037000040eb0003
:109140004aeb07001e0f40002e4090000040e80050
:1091500020479800ae4090004e40900080cf5000d5
:10916000f6ff39002e4090000080fb009e00780042
:1091700000017800110009008280d8003047980073
:109180003e4090000080fa00000006000800fa004f
:10919000200798003107980066000700008fbe0086
:1091a0002e0090003e0290008001780062c0b30063
:1091b0001e0078009e00900008e707000080fa007b
:1091c000000006000400fa0020479800314798008c
:1091d00033c2b3000041eb0011c0b30050c0b30074
:1091e00074ea0700be4090002e409000b0ff0700d8
:1091f000004f780035eb07001e4078000080fa0031
:10920000000006000a00fa00004f9800114f980075
:109210006000b800008fbe000040eb00404798009f
:109220001e4890000004e0002300320015003700c3
:1092300010c0b3000deb07008000eb001e0f4000d4
:109240005e9748004e4090000040e800404798007c
:109250001e4890000080fb008000eb0062042000ac
:109260008289b900e002b90084017800030141005d
:10927000630420000300b80001014100820078006f
:1092800059140700ce4090000e48900080cf500047
:10929000e7ff39000c00370010c0b300f3ea070005
:1092a0008000eb001e0f40005e9748004e4090008b
:1092b0000040e80040479800ce4090000e489000e3
:1092c00080cf5000f4ff39004e4090000080fb003a
:1092d0008000eb000001be001e0078009e009000a0
:1092e000eddf0700300798003e0090000080fa0094
:1092f000000006000400fa0020479800314798005b
:1093000033c2b3000041eb0011c0b30050c0b30042
:1093100028ea0700be4090002e409000b9ff0700e9
:10932000000f7800e9ea07001e0078000080fa00cc
:10933000000006000600fa0033c2b3000041eb0053
:1093400011c0b30050c0b3001aea070010c0b30048
:10935000c6ea0700000f78001e0078008000eb00ce
:109360003cdf0700629f200003aa230096df07006e
:109370001007980021079800d4ea07001e0090000b
:10938000ae0090000080fa00000006000000fa0025
:1093900033c2b3000041eb0011c0b30050c0b300b2
:1093a00004ea07000080fa00000006000200fa004c
:1093b0000040eb00adea0700004f78001e40780047
:1093c0000080fa00000006000200fa0033c2b30079
:1093d0000041eb0011c0b30050c0b300f5e9070035
:1093e00010c0b300a1ea0700000f7800b7ea070039
:1093f0001e0078000080fa00000006000000fa005d
:10940000b2ea07000080fa00000006000200fa003d
:1094100033c2b3000041eb0011c0b30050c0b30031
:10942000e4e907000040eb0090ea0700004f7800f5
:10943000a6ea07001e4078000080fa00000006003f
:109440000200fa0010c0b30088ea0700000f78009d
:109450001e0078000080fa00000006000600fa00f6
:1094600040479800514798000000eb00000f78003b
:109470000040eb00204798005e4090000004e000b0
:109480001f003200130037000040eb0077ea0700ae
:109490001e0f40002e4090000040e800204798003a
:1094a0005e4090000080fb008000eb006204200022
:1094b0008289b900e002b90084017800030141000b
:1094c000630420000300b80001014100820078001d
:1094d000c5130700ae4090004e40900080cf500072
:1094e000e9ff39000a0037000040eb005fea07009f
:1094f0001e0f40002e4090000040e80020479800da
:10950000ae4090004e40900080cf5000f6ff3900f2
:109510002e4090000080fb009e0078000001780043
:10952000110009008280d800304798003e4090002a
:109530000080fa00000006000800fa0020079800ea
:109540003107980066000700008fbe002e009000d3
:109550003e0290008001780062c0b3001e007800d7
:109560009e0090001de607000080fa000000060043
:109570000400fa00204798003147980043c0b30028
:109580000041eb0011c0b30010c0b30089e907002f
:10959000be4090002e409000b0ff0700004f7800c2
:1095a0004aea07001e4078000080fa00000006002a
:1095b0000a00fa00004f9800114f98006000b800b0
:1095c000008fbe000040eb00404798001e4890000e
:1095d0000004e000230032001500370010c0b30083
:1095e00022ea07008000eb001e0f40005e97480053
:1095f0004e4090000040e800404798001e48900010
:109600000080fb008000eb00620420008289b9002a
:10961000e002b900840178000301410063042000e6
:109620000300b80001014100820078006e130700ba
:10963000ce4090000e48900080cf5000e7ff3900e8
:109640000c00370010c0b30008ea07008000eb00f0
:109650001e0f40005e9748004e4090000040e8001a
:1096600040479800ce4090000e48900080cf5000b8
:10967000f4ff39004e4090000080fb008000eb00ba
:109680000001be001e0078009e00900002df07006f
:10969000300798003e0090000080fa0000000600ad
:1096a0000400fa00204798003147980043c0b300f7
:1096b0000041eb0011c0b30010c0b3003de907004a
:1096c000be4090002e409000b9ff0700000f7800c8
:1096d000fee907001e0078000080fa000000060086
:1096e0000600fa0043c0b3000041eb0011c0b30014
:1096f00010c0b3002fe9070010c0b300dbe907007a
:10970000000f78001e0078008000eb0051de07009b
:10971000629f200003aa2300abde07001007980019
:1097200021079800e9e907001e009000ae009000b4
:109730000080fa00000006000000fa0043c0b300f9
:109740000041eb0011c0b30010c0b30019e90700dd
:109750000080fa00000006000200fa000040eb0062
:10976000c2e90700004f78001e4078000080fa0030
:10977000000006000200fa0043c0b3000041eb0005
:1097800011c0b30010c0b3000ae9070010c0b30055
:10979000b6e90700000f7800cce907001e0078004a
:1097a0000080fa00000006000000fa00c7e9070088
:1097b0000080fa00000006000200fa0043c0b30077
:1097c0000041eb0011c0b30010c0b300f9e807007e
:1097d0000040eb00a5e90700004f7800bbe9070057
:1097e0001e4078000080fa00000006000200fa0027
:1097f00010c0b3009de90700000f78001e0078003c
:109800000080fa00000006000600fa0040479800b9
:10981000514798000000eb00000f78000040eb007b
:10982000204798005e4090000004e0001f003200d6
:10983000130037000040eb008ce907001e0f4000ca
:109840002e4090000040e800204798005e409000c5
:109850000080fb008000eb00620420008289b900d8
:10986000e002b90084017800030141006304200094
:109870000300b8000101410082007800da120700fd
:10988000ae4090004e40900080cf5000e9ff39007c
:109890000a0037000040eb0074e907001e0f40008b
:1098a0002e4090000040e80020479800ae40900015
:1098b0004e40900080cf5000f6ff39002e409000bf
:1098c0000080fb009e007800000178001100090074
:1098d0008280d800304798003e4090000080fa0017
:1098e000000006000800fa002007980031079800e1
:1098f00066000700008fbe002e0090003e02900020
:109900008001780062c0b3001e0078009e009000c5
:1099100032e507000080fa00000006000400fa00ab
:10992000204798003147980043c0b3000041eb0046
:1099300011c0b3000040eb009ee80700be4090005d
:109940002e409000b0ff0700004f78005fe907004d
:109950001e4078000080fa00000006000a00fa00ad
:10996000004f9800114f98006000b800008fbe00b3
:109970000040eb00404798001e4890000004e000c3
:10998000230032001500370010c0b30037e907008c
:109990008000eb001e0f40005e9748004e40900094
:1099a0000040e800404798001e4890000080fb00ff
:1099b0008000eb00620420008289b900e002b90057
:1099c0008401780003014100630420000300b80013
:1099d000010141008200780083120700ce40900010
:1099e0000e48900080cf5000e7ff39000c00370090
:1099f00010c0b3001de907008000eb001e0f4000ff
:109a00005e9748004e4090000040e80040479800b4
:109a1000ce4090000e48900080cf5000f4ff3900f7
:109a20004e4090000080fb008000eb000001be0073
:109a30001e0078009e00900017de07003007980097
:109a40003e0090000080fa00000006000400fa00ca
:109a5000204798003147980043c0b3000041eb0015
:109a600011c0b3000040eb0052e80700be40900078
:109a70002e409000b9ff0700000f780013e907009f
:109a80001e0078000080fa00000006000600fa00c0
:109a900043c0b3000041eb0011c0b3000040eb0035
:109aa00044e8070010c0b300f0e80700000f78009a
:109ab0001e0078008000eb0066dd0700629f20003a
:109ac00003aa2300c0dd07001007980021079800b3
:109ad000fee807001e009000ae0090000080fa0033
:109ae000000006000000fa0043c0b3000041eb0094
:109af00011c0b3000040eb002ee807000080fa0020
:109b0000000006000200fa000040eb00d7e8070062
:109b1000004f78001e4078000080fa000000060028
:109b20000200fa0043c0b3000041eb0011c0b300d3
:109b30000040eb001fe8070010c0b300cbe80700af
:109b4000000f7800e1e807001e0078000080fa00ae
:109b5000000006000000fa00dce807000080fa00c0
:109b6000000006000200fa0043c0b3000041eb0011
:109b700011c0b3000040eb000ee807000040eb000e
:109b8000bae80700004f7800d0e807001e407800d0
:109b90000080fa00000006000200fa0010c0b300c6
:109ba000b2e80700000f78001e0078000080fa007d
:109bb000000006000600fa00404798005147980050
:109bc0000000eb00000f78000040eb0020479800f9
:109bd0005e4090000004e0001f00320013003700d8
:109be0000040eb00a1e807001e0f40002e4090004f
:109bf0000040e800204798005e4090000080fb0095
:109c00008000eb00620420008289b900e002b90004
:109c10008401780003014100630420000300b800c0
:109c20000101410082007800ef110700ae40900072
:109c30004e40900080cf5000e9ff39000a00370005
:109c40000040eb0089e807001e0f40002e40900006
:109c50000040e80020479800ae4090004e40900041
:109c600080cf5000f6ff39002e4090000080fb00ae
:109c70009e00780000017800110009008280d80061
:109c8000304798003e4090000080fa000000060037
:109c90000800fa00200798003107980066000700c6
:109ca000008fbe002e0090003e02900080017800e0
:109cb00062c0b3001e0078009e00900047e40700d9
:109cc0000080fa00000006000400fa002047980017
:109cd0003147980083c2b3000041eb0031c0b300ac
:109ce00020c0b300b3e70700be4090002e409000b4
:109cf000b0ff0700004f780074e807001e407800ae
:109d00000080fa00000006000a00fa00004f9800e8
:109d1000114f98006000b800008fbe000040eb00bb
:109d2000404798001e4890000004e00023003200e5
:109d30001500370010c0b3004ce807008000eb00ae
:109d40001e0f40005e9748004e4090000040e80023
:109d5000404798001e4890000080fb008000eb0008
:109d6000620420008289b900e002b9008401780011
:109d700003014100630420000300b8000101410019
:109d80008200780098110700ce4090000e489000a5
:109d900080cf5000e7ff39000c00370010c0b3003f
:109da00032e807008000eb001e0f40005e9748007d
:109db0004e4090000040e80040479800ce409000a0
:109dc0000e48900080cf5000f4ff39004e409000c4
:109dd0000080fb008000eb000001be001e00780048
:109de0009e0090002cdd0700300798003e00900098
:109df0000080fa00000006000400fa0020479800e6
:109e00003147980083c2b3000041eb0031c0b3007a
:109e100020c0b30067e70700be4090002e409000ce
:109e2000b9ff0700000f780028e807001e0078003f
:109e30000080fa00000006000600fa0083c2b300aa
:109e40000041eb0031c0b30020c0b30059e7070068
:109e500010c0b30005e80700000f78001e0078006e
:109e60008000eb007bdc0700629f200003aa230038
:109e7000d5dc0700100798002107980013e80700b9
:109e80001e009000ae0090000080fa000000060066
:109e90000000fa0083c2b3000041eb0031c0b30000
:109ea00020c0b30043e707000080fa00000006006e
:109eb0000200fa000040eb00ece70700004f7800da
:109ec0001e4078000080fa00000006000200fa0040
:109ed00083c2b3000041eb0031c0b30020c0b30027
:109ee00034e7070010c0b300e0e70700000f780078
:109ef000f6e707001e0078000080fa000000060068
:109f00000000fa00f1e707000080fa0000000600f8
:109f10000200fa0083c2b3000041eb0031c0b3007d
:109f200020c0b30023e707000040eb00cfe70700a5
:109f3000004f7800e5e707001e4078000080fa0037
:109f4000000006000200fa0010c0b300c7e70700d7
:109f5000000f78001e0078000080fa000000060064
:109f60000600fa0040479800514798000000eb00b7
:109f7000000f78000040eb00204798005e40900002
:109f80000004e0001f003200130037000040eb0027
:109f9000b6e707001e0f40002e4090000040e8008a
:109fa000204798005e4090000080fb008000eb009e
:109fb000620420008289b900e002b90084017800bf
:109fc00003014100630420000300b80001014100c7
:109fd0008200780004110700ae4090004e409000cf
:109fe00080cf5000e9ff39000a0037000040eb0045
:109ff0009ee707001e0f40002e4090000040e80042
:10a0000020479800ae4090004e40900080cf500016
:10a01000f6ff39002e4090000080fb009e00780083
:10a0200000017800110009008280d80030479800b4
:10a030003e4090000080fa00000006000800fa0090
:10a04000200798003107980066000700008fbe00c7
:10a050002e0090003e0290008001780062c0b300a4
:10a060001e0078009e0090005ce307000080fa006c
:10a07000000006000400fa002047980031479800cd
:10a0800033c2b3000041eb0011c0b30040c0b300c5
:10a09000c8e60700be4090002e409000b0ff0700c9
:10a0a000004f780089e707001e4078000080fa0022
:10a0b000000006000a00fa00004f9800114f9800b7
:10a0c0006000b800008fbe000040eb0040479800e1
:10a0d0001e4890000004e000230032001500370005
:10a0e00010c0b30061e707008000eb001e0f4000c6
:10a0f0005e9748004e4090000040e80040479800be
:10a100001e4890000080fb008000eb0062042000ed
:10a110008289b900e002b90084017800030141009e
:10a12000630420000300b8000101410082007800b0
:10a13000ad100700ce4090000e48900080cf500038
:10a14000e7ff39000c00370010c0b30047e70700f5
:10a150008000eb001e0f40005e9748004e409000cc
:10a160000040e80040479800ce4090000e48900024
:10a1700080cf5000f4ff39004e4090000080fb007b
:10a180008000eb000001be001e0078009e009000e1
:10a1900041dc0700300798003e0090000080fa0084
:10a1a000000006000400fa0020479800314798009c
:10a1b00033c2b3000041eb0011c0b30040c0b30094
:10a1c0007ce60700be4090002e409000b9ff0700db
:10a1d000000f78003de707001e0078000080fa00bd
:10a1e000000006000600fa0033c2b3000041eb0095
:10a1f00011c0b30040c0b3006ee6070010c0b3004a
:10a200001ae70700000f78001e0078008000eb00be
:10a2100090db0700629f200003aa2300eadb07000f
:10a22000100798002107980028e707001e009000fb
:10a23000ae0090000080fa00000006000000fa0066
:10a2400033c2b3000041eb0011c0b30040c0b30003
:10a2500058e607000080fa00000006000200fa003d
:10a260000040eb0001e70700004f78001e40780037
:10a270000080fa00000006000200fa0033c2b300ba
:10a280000041eb0011c0b30040c0b30049e6070035
:10a2900010c0b300f5e60700000f78000be70700d9
:10a2a0001e0078000080fa00000006000000fa009e
:10a2b00006e707000080fa00000006000200fa002e
:10a2c00033c2b3000041eb0011c0b30040c0b30083
:10a2d00038e607000040eb00e4e60700004f780096
:10a2e000fae607001e4078000080fa000000060031
:10a2f0000000fa0001728000f0f72f00008060007b
:10a3000000728800207280000070a0001072880027
:10a310000080fa00000006000000fa0001728000d0
:10a32000f0f72f000080600000728800217280002a
:10a33000f0f72f0000806000107288000080fa00a3
:10a34000000006000000fa0001728000f0fb2f0000
:10a350000080600000728800207280000060a00011
:10a36000107288000080fa00000006000000fa0069
:10a3700001728000f0fb2f000080600000728800f6
:10a3800021728000f0fb2f000080600010728800b6
:10a390000080fa00000006000000fa000172800050
:10a3a000f0fd2f00008060000072880020728000a5
:10a3b0000050a000107288000080fa000000060023
:10a3c0000000fa0001728000f0fd2f0000806000a4
:10a3d0000072880021728000f0fd2f000080600074
:10a3e000107288000080fa00000006000000fa00e9
:10a3f00001728000f0fe2f00008060000072880073
:10a40000207280000040a000107288000080fa00d6
:10a41000000006000000fa0001728000f0fe2f002c
:10a42000008060000072880021728000f0fe2f0022
:10a4300000806000107288000080fa0000000600b2
:10a440000000fa000172800070ff2f0000806000a1
:10a4500000728800207280000030a0001072880016
:10a460000080fa00000006000000fa00017280007f
:10a4700070ff2f0000806000007288002172800051
:10a4800070ff2f0000806000107288000080fa00ca
:10a49000000006000000fa0001728000b0ff2f00eb
:10a4a0000080600000728800207280000020a00000
:10a4b000107288000080fa00000006000000fa0018
:10a4c00001728000b0ff2f000080600000728800e1
:10a4d00021728000b0ff2f000080600010728800a1
:10a4e0000080fa00000006000000fa0001728000ff
:10a4f000d0ff2f0000806000007288002072800072
:10a500000010a000107288000080fa000000060011
:10a510000000fa0001728000d0ff2f000080600070
:10a520000072880021728000d0ff2f000080600040
:10a53000107288000080fa00000006000000fa0097
:10a5400001728000e0ff2f00008060000072880030
:10a55000207280000000a000107288000080fa00c5
:10a56000000006000000fa0001728000e0ff2f00ea
:10a57000008060000072880021728000e0ff2f00e0
:10a5800000806000107288000080fa000000060061
:10a590000400fa008041eb001200200001e02000de
:10a5a00020e0200039dd07000000e0000300320059
:10a5b00010c0b30030479800020037000040eb00a5
:10a5c000304798000000eb00000f7800be4090007c
:10a5d00021479800190037000017210011002000c2
:10a5e000810f07008041eb001200200001e02000f5
:10a5f00020e0200025dd07000000e000030032001d
:10a6000010c0b30030479800020037000040eb0054
:10a6100030479800be4090002e40900080cf500000
:10a6200002003a001e0fe800020037000000eb00b5
:10a63000000f7800be409000214798001e0078006f
:10a64000e90f5000e4ff36003e4090000080fa0021
:10a65000000006000600fa0000c0eb00004f780082
:10a6600001003700000000008041eb0012002000d4
:10a6700001e0200020e0200004dd0700004f78000a
:10a680000000eb00100798009e40780041479800ba
:10a69000150037000017210011002000520f07009d
:10a6a0008041eb001200200001e0200020e02000ab
:10a6b000f6dc0700004f78004e4090009e40780086
:10a6c00080cf500004003a001e0090000000e80017
:10a6d00010079800020037000000eb0010079800f8
:10a6e0009e407800414798001e009000e90f5000fe
:10a6f000e8ff36001e4078000004e000d9ff320079
:10a70000000000000080fa00000006000600fa00c9
:10a7100001003700000000008041eb001200200023
:10a7200001e0200020e02000d8dc0700004f780086
:10a730000000eb00100798009e4078004147980009
:10a74000150037000017210011002000260f070018
:10a750008041eb001200200001e0200020e02000fa
:10a76000cadc0700004f78004e4090009e40780001
:10a7700080cf500004003a001e0090000000e80066
:10a7800010079800020037000000eb001007980047
:10a790009e407800414798001e009000e90f50004d
:10a7a000e8ff36001e4078000004e000d9ff3a00c0
:10a7b000000000000080fa00000006000400fa001b
:10a7c00013c0b3002200200001e0200020e02000a0
:10a7d000aedc07000000e0000300320010c0b30050
:10a7e00030479800020037000040eb0030479800e7
:10a7f0000000eb00000f7800be4090002147980059
:10a80000190037000017210011002000f60e070084
:10a8100013c0b3002200200001e0200020e020004f
:10a820009adc07000000e0000300320010c0b30013
:10a8300030479800020037000040eb003047980096
:10a84000be4090002e40900080cf500002003a00a1
:10a850001e0fe800020037000000eb00000f780038
:10a86000be409000214798001e007800e90f50007c
:10a87000e4ff36003e4090000080fa000000060031
:10a880000600fa0000c0eb00004f7800010037001e
:10a890000000000013c0b3002200200001e02000ef
:10a8a00020e0200079dc0700004f78000000eb007a
:10a8b000100798009e407800414798001500370027
:10a8c0000017210011002000c70e070013c0b300bd
:10a8d0002200200001e0200020e020006bdc0700c7
:10a8e000004f78004e4090009e40780080cf50008e
:10a8f00004003a001e0090000000e80010079800d5
:10a90000020037000000eb00100798009e4078001e
:10a91000414798001e009000e90f5000e8ff360004
:10a920001e4078000004e000d9ff32000000000063
:10a930000080fa00000006000600fa00010037005f
:10a940000000000013c0b3002200200001e020003e
:10a9500020e020004ddc0700004f78000000eb00f5
:10a96000100798009e407800414798001500370076
:10a9700000172100110020009b0e070013c0b30038
:10a980002200200001e0200020e020003fdc070042
:10a99000004f78004e4090009e40780080cf5000dd
:10a9a00004003a001e0090000000e8001007980024
:10a9b000020037000000eb00100798009e4078006e
:10a9c000414798001e009000e90f5000e8ff360054
:10a9d0001e4078000004e000d9ff3a0000000000ab
:10a9e0000080fa00000006001800fa00881f7800b6
:10a9f000200f9800310f98006000b800008fbe0053
:10aa00002e089000e90f500002003e00a000200038
:10aa1000200f98003e089000e40f500002003e0016
:10aa200050002000300f98002e08900000004000d9
:10aa3000400798004e0090008000eb0085d9070089
:10aa40000001be000000200001f8230017d9070014
:10aa500050079800610798000240220043972400a5
:10aa60005e009000ee009000d7d9070055d907008e
:10aa7000700798005e009000ee0090000001be009c
:10aa800048d8070002002000a3472400ced90700c1
:10aa9000200798003107980018c0b300d27b23002c
:10aaa000635823002e009000be00900041d907009b
:10aab0000000e000010035000044eb000804e00065
:10aac00004003200d07b2300615823002007980047
:10aad000310798003e0890008000eb005dd9070028
:10aae0002e019000be019000f0d8070035d9070074
:10aaf000000f9800110f98008172800070ff2f00e6
:10ab00000080600080728800a172800070ff2f00ba
:10ab100000806000907288006000b800008fbe0066
:10ab2000170037007e00900014dc0700817280005f
:10ab300070ff2f000080600080728800a07280008b
:10ab40000030a000907288007e0090000bdc0700af
:10ab50008172800070ff2f0000806000807288008a
:10ab6000a172800070ff2f0000806000907288004a
:10ab700012002000030020001e0f41005e974900d4
:10ab80000e0890009e0890001e0178009e01900023
:10ab9000800f5100818f5900e2ff39004f04780087
:10aba0000080fa00000006000200fa00004f780062
:10abb0001e80fb00e30f50002a003200e30f50001c
:10abc00007003c00e10f500016003200e10f50007a
:10abd0001c003c000000e0000a0032004900370081
:10abe000e50f50002f003200e50f50002500350022
:10abf000e60f500033003200e70f500039003200fa
:10ac00004000370001728000e0ff2f0000806000ec
:10ac100000728800207280000000a000107288007e
:10ac20003800370001728000d0ff2f0000806000e4
:10ac300000728800207280000010a000107288004e
:10ac40003000370001728000b0ff2f0000806000ec
:10ac500000728800207280000020a000107288001e
:10ac6000280037000172800070ff2f000080600014
:10ac700000728800207280000030a00010728800ee
:10ac80002000370001728000f0fe2f00008060007d
:10ac900000728800207280000040a00010728800be
:10aca0001800370001728000f0fd2f000080600066
:10acb00000728800207280000050a000107288008e
:10acc0001000370001728000f0fb2f000080600050
:10acd00000728800207280000060a000107288005e
:10ace0000800370001728000f0f72f00008060003c
:10acf00000728800207280000070a000107288002e
:10ad0000000000000080fa00000006000200fa00c7
:10ad1000004f78001e80fb0073ee07000080fa00f1
:10ad2000000006000800fa00004f78001147980064
:10ad30001207980023079800340798003e009000ff
:10ad4000004178001e4090008080fb001e80fb00c8
:10ad5000824278000042eb00810178000001780017
:10ad6000ae0090001e009000c7e907000080fa00c6
:10ad7000000006000800fa00008fbe0022079800bd
:10ad8000330798001e0178009e019000928588008c
:10ad9000a38588002e019000be0190007285880076
:10ada000838588008000eb0040c1b3002ef00700cf
:10adb0001e0178009e0190000040eb000506070090
:10adc0002e019000be019000a0c0b3000106070054
:10add0000080fa00000006000000fa008000eb008e
:10ade0000000eb00e70407000080fa000000060006
:10adf0000400fa00f7f10700008fbe001e00780083
:10ae00009e0090000080fa00000006001a00fa0080
:10ae1000881f7800f6ff0700008fbe0018c0b3003f
:10ae200002002000030624001e0078009e0090000f
:10ae300060d807000000e000010035000044eb008e
:10ae40000804e0000f0032008042eb000042eb00fb
:10ae50000301200022022000b1002000b0c528001c
:10ae600089e907008042eb000042eb0083012000eb
:10ae7000320120000101200060c6280082e907009d
:10ae8000ffff370093eb0700504798005e409000ab
:10ae90000004e0001300320002002000030624003a
:10aea0001e0078009e0090003dd70700008fbe0076
:10aeb00002002000a32f24001e0078009e009000b6
:10aec000c1d80700008fbe00e600470060c7280019
:10aed0004301200001017800a10020000fe30700da
:10aee0001200370002002000030624001e00780034
:10aef0009e0090002ad70700008fbe00628f2a00b4
:10af0000633224001e0078009e009000aed8070037
:10af1000008fbe00e600470000c828004301200063
:10af200001017800a1002000fce207001e0078006b
:10af30009e00900023d8070040479800ce40900024
:10af400040c6b30080cf50000200360040c6b300b8
:10af500040479800660447004e4090000080fb0088
:10af60008000eb0043012000c20b210038de070007
:10af70008000780066004700450120000802780044
:10af800043012000010178004101200016e2070082
:10af900066014700a1c8280066004700450120005f
:10afa00002027800430020000101780041012000e6
:10afb0000de20700660047008042eb000042eb0014
:10afc0000301200092012000410120002ee907002a
:10afd0004f0478000080fa00000006000200fa002a
:10afe000004f78001e80fb00e30f50002d00320060
:10aff000e30f500007003c00e10f50001700320043
:10b00000e10f50001e003c000000e0000a0032008a
:10b0100051003700e50f500034003200e50f5000ba
:10b0200029003500e60f500039003200e70f5000cc
:10b03000400032004800370001728000e0ff2f001e
:10b04000008060000072880021728000e0ff2f0005
:10b0500000806000107288003f003700017280009d
:10b06000d0ff2f00008060000072880021728000f5
:10b07000d0ff2f000080600010728800360037007b
:10b0800001728000b0ff2f00008060000072880015
:10b0900021728000b0ff2f000080600010728800d5
:10b0a0002d0037000172800070ff2f0000806000cb
:10b0b000007288002172800070ff2f000080600005
:10b0c000107288002400370001728000f0fe2f000b
:10b0d000008060000072880021728000f0fe2f0066
:10b0e00000806000107288001b0037000172800031
:10b0f000f0fd2f0000806000007288002172800047
:10b10000f0fd2f00008060001072880012003700f0
:10b1100001728000f0fb2f00008060000072880048
:10b1200021728000f0fb2f00008060001072880008
:10b130000900370001728000f0f72f0000806000e6
:10b140000072880021728000f0f72f0000806000fc
:10b1500010728800000000000080fa000000060065
:10b160000600fa00004f7800114798001207980077
:10b17000434798001e4090000081fb009e80fb002a
:10b180001e0090004e4290008041eb00f9e607005f
:10b190000080fa00000006000200fa00004f78006c
:10b1a0000172800000f02f000080600000728800b3
:10b1b0002172800000f02f00808060001e80fb0064
:10b1c00001007000107288000080fa000000060084
:10b1d0000200fa008041eb001200200001e520008f
:10b1e00020e5200029da0700004f78001e40780093
:10b1f0000080fa00000006000200fa0005f20700d5
:10b20000000f78001e0078000080fa0000000600a1
:10b210000200fa0011828000010f78001e00780001
:10b220000080fa00000006000200fa00000f78001b
:10b2300045d0bf00f04f500008003a001e007800d3
:10b2400000407800c4eb07001e0078004800de00d4
:10b2500000407800c0eb0700030037001e007800b4
:10b2600000407800bceb0700108280000000e8007e
:10b27000108288000080fa00000006000400fa0036
:10b28000204798002e4090000004e00007003200a4
:10b290008041eb001200200001e0200020e02000af
:10b2a000fad90700004f78000600370013c0b3003a
:10b2b0002200200001e0200020e02000f3d9070058
:10b2c000004f78001e4078000080fa000000060061
:10b2d0000400fa00204798002e409000100207005a
:10b2e000004f780010c3b3009e40780080cf50001c
:10b2f0000300360010c0b300004f78000200370092
:10b300000040eb00004f78001e4078000080fa00fb
:10b31000000006000400fa0020479800314798001a
:10b320002e4090000004e0002a0032002e409000e1
:10b330000080fb0061006000004078000004e00035
:10b34000060032002e4090007840600045f0b700c3
:10b3500010c0b30039f0b700070037002e4190004d
:10b360005104210082487800fde4070000402000dd
:10b3700042e507003970ef00afeb07004230ef0005
:10b380003e4090000004e00003003a00e02222006a
:10b39000000f78000200370070112100000f7800c4
:10b3a000e1098000d0ff27000080600000f0a000cd
:10b3b000e0098800e1098000f0f02f0000806000c3
:10b3c000e00988001e00e900c00988002688a8005e
:10b3d00002003700fbe407002688a9000080fa007d
:10b3e000000006001800fa00000f9800110f9800e6
:10b3f000220f9800330f98000040eb004047980060
:10b400000040eb00704798002e099000be099000a4
:10b410004006200001002000800f5100818f59005c
:10b420000300360020c3b300004f98000600370029
:10b430002e089000be08900032002000030020007b
:10b4400095d70700004f980010c0b30044f0b70034
:10b450000e0890000000e0000500350010c0b300a9
:10b46000104f9800f0002000000f78000400370013
:10b470000040eb00104f980010ff2f00000f7800e5
:10b480001e0890000000e0000500350010c0b30069
:10b49000204f9800f00020001007980004003700ab
:10b4a0000040eb00204f980010ff2f00100798007d
:10b4b0003c30ef003e30ef000040eb00504798007a
:10b4c000a0c0b300604798000040eb0070479800b0
:10b4d000f0003700e08180006101b8002e08900084
:10b4e000be089000800f5100818f59000700310085
:10b4f000f08180006101b8002e089000be08900025
:10b50000800f5100818f5900060039008000eb0048
:10b510000000eb001b03070010c0b3004047980079
:10b52000030037009e0090001e00780015030700fe
:10b53000e1818000f0818000808f50002c00360077
:10b5400030c0b30050479800de4090006e4090003d
:10b5500080cf5000220032000040eb00704798007e
:10b560001e489000e14f500005003a001e00780090
:10b570000000e000060034001e0fe9000400370060
:10b580001e0078000000e00001003d001e0fe800f2
:10b590002e489000e14f500008003a00b08580002e
:10b5a0009e009000808f5000b2003d001e00900071
:10b5b0000000e80010079800ae003700b08580005a
:10b5c0008000ea001e009000808f5000a9003d001e
:10b5d0001e0090000000e90010079800a500370049
:10b5e0007e4090000040e80070479800a1003700be
:10b5f000f1818000e0818000808f50002b003600b8
:10b6000020c0b30050479800de4090006e4090008c
:10b6100080cf5000210032000040eb0070479800be
:10b620002e489000e14f500007003a001e009000a5
:10b630000000e0000a0034001e0090000000e90055
:10b6400010079800060037001e0090000000e00080
:10b6500003003d001e0090000000e8001007980065
:10b660001e489000e14f500006003a00b08580006f
:10b670009e007800808f50007e003d001e0fe80085
:10b680007c003700b08580000000ea009e0f50006b
:10b6900078003d001e0fe900760037007e409000e4
:10b6a0000040e8007047980072003700e081800099
:10b6b0006101b8000e4890000080fb008000eb00a4
:10b6c0002e0a9000be0a90000000520081805a00ad
:10b6d000800f5100818f59000c003100f0818000f3
:10b6e0006101b8000e4890000080fb008000eb0074
:10b6f0002e0a9000be0a90000000520081805a007d
:10b70000800f5100818f59002900390010c0b3000b
:10b7100050479800de4090006e40900080cf50006f
:10b720001f0032000040eb00704798001e48900058
:10b73000e14f500005003a001e007800ea0f50006b
:10b74000060034001e0fe900040037001e007800d8
:10b75000ea0f400001003d001e0fe8002e48900057
:10b76000e14f500007003a001e009000ea0f500021
:10b770003d0034001e0090000000e9001007980012
:10b780003c0037001e009000ea0f400038003d00ea
:10b790001e0090000000e8001007980035003700f8
:10b7a0007e4090000040e80070479800310037006c
:10b7b0000040eb0050479800de4090006e40900043
:10b7c00080cf5000240032000040eb00704798000a
:10b7d0001e489000e14f500006003a00b0858000fe
:10b7e0009e007800808f500007003d001e0fe8008b
:10b7f00005003700b08580000000ea009e0f500071
:10b8000001003d001e0fe9002e489000e14f50005e
:10b8100008003a00b08580009e009000808f5000a4
:10b8200014003d001e0090000000e8001007980082
:10b8300010003700b08580008000ea001e009000f4
:10b84000808f50000b003d001e0090000000e900ba
:10b8500010079800070037007e4090000040e80085
:10b860007047980003003700000000000100370017
:10b87000000000007e409000e74f500003003e00b3
:10b88000de4090006147980002003700a0c0b3007e
:10b89000604798004e4090000004e0000dff320029
:10b8a0004470ef00007e260051032000ce0a0700fe
:10b8b0000080fa00000006000200fa00004f780045
:10b8c0009e80fb001e80fb000000ea002d020700a6
:10b8d0000080fa00000006000a00fa004007980005
:10b8e0004e0090008000eb00dad50700008fbe000c
:10b8f00070858000818580000001be001e007800f8
:10b900009e00900030d60700008fbe00908580001a
:10b91000a18580000001be001e0078009e009000fe
:10b9200062d50700008fbe001e0078009e009000c8
:10b93000a4d507002007980031079800b185800042
:10b94000b08580000000ea002e019000be0190004a
:10b95000a4fe07000080fa00000006000200fa00c2
:10b96000004f780040c6b3009e40780080cf500062
:10b970000200360040c6b300004f78009e80fb00f6
:10b980001e80fb00ff0107000080fa000000060097
:10b990000400fa00004f78001147980022479800f1
:10b9a000ae40900000cbb30000c0700092e70700eb
:10b9b0001e4090000080fb004400de000040780044
:10b9c0000044a0008ce707001e4090006f4060001c
:10b9d00089e707001e40780081e507000080fa0033
:10b9e000000006000200fa00cbea0700004f7800d2
:10b9f0001e4078000080fa00000006000400fa00f3
:10ba0000004f78001147980022479800334798006c
:10ba1000be4190002e4190009e4090001e40780054
:10ba2000fee407000080fa00000006000200fa00b1
:10ba300084ea0700000f78001e0078000080fa00fa
:10ba4000000006000400fa00000f780011079800bb
:10ba50009e0090001e007800f0ea07000080fa00c7
:10ba6000000006000200fa00004f78001e40780037
:10ba70000004e000020032008be3070008003700fa
:10ba8000a2e3070001738000e0ff2f000080600048
:10ba900000738800207380000000a00010738800ed
:10baa00040c6b3001e4050009fe307000080fa002c
:10bab000000006000400fa00108280000000e00090
:10bac0001200320045d0bf00f04f500009003a008c
:10bad000bee90700000f7800bce907002047980086
:10bae0002e4090000080fb004800dd001e0f70001b
:10baf00002003700b5e90700000f780010828000cf
:10bb00000000e90010828800020037000000eb000e
:10bb1000000f78001e0078000080fa000000060088
:10bb20000600fa00404798000000eb00000f780084
:10bb300001738000f0df2f00008060000073880038
:10bb4000207380000090a000107388004e40900089
:10bb50000080fb00e10f500003003a0005f70700ea
:10bb6000000f780002003700edf70700000f7800a3
:10bb700001738000f0df2f000080600000738800f8
:10bb800021738000f0df2f000080600010738800b8
:10bb9000f0ff20001e005000100798001e009000cb
:10bba0000080fa00000006000a00fa004007980032
:10bbb0004e0090008000eb0026d50700008fbe00ed
:10bbc00070858000818580000001be001e00780025
:10bbd0009e0090007cd50700008fbe0090858000fd
:10bbe000a18580000001be001e0078009e0090002c
:10bbf000aed40700008fbe001e0078009e009000ab
:10bc0000f0d407002007980031079800b085800025
:10bc10008000ea00b08580002e019000be019000f7
:10bc2000f0fd07000080fa00000006000200fa00a4
:10bc3000004f78001e80fb008000ea001e80fb00a1
:10bc4000500107000080fa00000006000400fa001e
:10bc5000204798002e40900080000700004f780099
:10bc600070ccb3009e40780080cf500003003600b7
:10bc700010c0b300004f7800020037000040eb0016
:10bc8000004f78001e4078000080fa000000060097
:10bc90000200fa00004f7800114798009e40900083
:10bca0001e40780053e507000080fa0000000600ff
:10bcb0000600fa0010079800210798000040eb00ea
:10bcc000004f78000029ef000a29ef002829ef0033
:10bcd0003229ef001e0090000000e0000a003a0048
:10bce0003b70ef0081718000c0ff2f00008060007a
:10bcf00080718800a1718000c0ff2f00008060006b
:10bd0000907188001d0037001e04a0001e009000e6
:10bd10000000e000080035001e00900000407800a0
:10bd20003bf0b7003870ef004ae107003bd0bf009e
:10bd300065e10700090037001e0090000040780010
:10bd40000040ea003bf0b70010c0b30038f0b70085
:10bd5000e0e107003bd0bf00fde1070081718000fa
:10bd6000c0ff2f000080600080718800a1718000fa
:10bd7000c0ff2f0000806000907188002e009000ae
:10bd80000000e0000a003a003570ef008171800089
:10bd900030ff2f000080600080718800a17180005a
:10bda00030ff2f0000806000907188001d00370078
:10bdb0001e14a0002e0090000000e00008003500d6
:10bdc0002e0090000040780035f0b7003670ef008c
:10bdd0006fe1070035d0bf008ce107000900370094
:10bde0002e009000004078000040ea0035f0b700d7
:10bdf00010c0b30036f0b70007e2070035d0bf002f
:10be000025e207008171800030ff2f000080600074
:10be100080718800a171800030ff2f0000806000d9
:10be2000907188000080fa00000006000200fa000d
:10be3000004f78001e4078000004e000030032004c
:10be400010c0b30061e60700020037000040eb00bd
:10be50005ee607000080fa00000006000800fa0015
:10be6000604798000000eb00000f78006e409000e3
:10be70000080fb00e40f50004c003200e40f500043
:10be800007003c00e20f500020003200e20f50009b
:10be900032003c00e10f50000800320093003700f0
:10bea000e60f500069003200e60f500053003500e5
:10beb000e70f5000790032008c00370042f5070090
:10bec0001007980081718000f07f2f0000806000d3
:10bed00080718800a071800000b0a000907188007f
:10bee00039f50700000f780081718000f07f2f0086
:10bef0000080600080718800a1718000f07f2f00b9
:10bf000000806000907188008b00370043f40700c8
:10bf10001007980081718000f0ff2e000080600003
:10bf200080718800a071800000c0a000907188001e
:10bf30003af40700000f780081718000f0ff2e00b6
:10bf40000080600080718800a1718000f0ff2e00e9
:10bf500000806000907188007700370044f307008c
:10bf60001007980081718000f0ff2d0000806000b4
:10bf700080718800a071800000d0a00090718800be
:10bf80003bf30700000f780081718000f0ff2d0067
:10bf90000080600080718800a1718000f0ff2d009a
:10bfa00000806000907188006300370045f2070050
:10bfb0001007980081718000f0ff2b000080600066
:10bfc00080718800a071800000e0a000907188005e
:10bfd0003cf20700000f780081718000f0ff2b0019
:10bfe0000080600080718800a1718000f0ff2b004c
:10bff00000806000907188004f00370046f1070014
:10c000001007980001708000f0fd2f000080600094
:10c0100000708800207080000050a0001070880020
:10c020003df10700000f780001708000f0fd2f0047
:10c03000008060000070880021708000f0fd2f00fb
:10c0400000806000107088003b00370047f0070058
:10c050001007980001708000f0fb2f000080600046
:10c0600000708800207080000060a00010708800c0
:10c070003ef00700000f780001708000f0fb2f00f9
:10c08000008060000070880021708000f0fb2f00ad
:10c0900000806000107088002700370048ef07001c
:10c0a0001007980001718000f0fe2f0000806000f2
:10c0b00000718800207180000040a000107188008d
:10c0c0003fef0700000f780001718000f0fe2f00a5
:10c0d000008060000071880021718000f0fe2f0058
:10c0e00000806000107188001300370062f80700bc
:10c0f0001007980081718000f0ef2f000080600031
:10c1000080718800a07180000080a000907188007c
:10c1100059f80700000f780081718000f0ef2f00c0
:10c120000080600080718800a1718000f0ef2f0016
:10c130000080600090718800f0ff20001e0f50000a
:10c14000f1ff20001e0090000080500010079800b2
:10c150001e0090009e007800808f50000400360082
:10c160001e0090001e0010002007980002003700fb
:10c170000000eb00200798002e0090000080fa00dd
:10c18000000006000600fa0010079800210798003a
:10c190000040eb00004f78001e0090000000e0001f
:10c1a0000f003a002e0090000000e0000c003a0062
:10c1b0000029ef000a29ef002829ef003229ef00bb
:10c1c0008171800000ff2f00008060008071880076
:10c1d000a0718000f000b300907188005a00370011
:10c1e0001e0090000000e0000b003a000029ef0064
:10c1f0002829ef003b70ef0081718000c0ff2f0005
:10c200000080600080718800a07180003000b30061
:10c21000907188001f0037001e04a0001e009000cf
:10c220000000e000090035001e009000004078008a
:10c230003bf0b7003870ef002829ef0005e0070059
:10c240003bd0bf0020e007000a0037001e0090002e
:10c25000004078000040ea003bf0b70010c0b30097
:10c2600038f0b7000029ef009ae007003bd0bf008c
:10c27000b7e0070081718000c0ff2f0000806000e0
:10c2800080718800a1718000c0ff2f0000806000d5
:10c29000907188002e0090000000e0000b003a0032
:10c2a0000a29ef003229ef003570ef00817180001c
:10c2b00030ff2f000080600080718800a071800036
:10c2c000c000b300907188001f0037001e14a0004a
:10c2d0002e0090000000e000090035002e009000c4
:10c2e0000040780035f0b7003670ef003229ef00db
:10c2f00027e0070035d0bf0044e007000a00370000
:10c300002e009000004078000040ea0035f0b700b1
:10c3100010c0b30036f0b7000a29ef00bee00700f6
:10c3200035d0bf00dce007008171800030ff2f00b6
:10c330000080600080718800a171800030ff2f00b4
:10c3400000806000907188000080fa000000060004
:10c350000a00fa00400798004e0090008000eb00b1
:10c360003cd30700008fbe0090858000a18580002f
:10c370000001be001e0078009e009000cbd2070096
:10c38000008fbe001e0078009e0090000dd30700b5
:10c390002007980031079800b08580008000ea00ef
:10c3a000b08580000000ea002e019000be019000e0
:10c3b0000cfc07000080fa00000006001200fa00e2
:10c3c000881f7800005798000040eb00004f78006d
:10c3d000080037001e84fb000e5090001e404000f5
:10c3e0003bea07008040780066004400017778004f
:10c3f0001e4fe8001e407800e94f5000f5ff360060
:10c4000066004700a10020001bdc07001007980011
:10c41000210798001e009000ae0090004f047800a5
:10c420000080fa00000006000000fa003c30ef0037
:10c430003e30ef000080fa00000006000200fa0023
:10c44000004f780040c6b3009e40780080cf500077
:10c450000200360040c6b300004f78001e80fb008b
:10c460008000ea001e80fb000000ea0045ff070094
:10c470000080fa00000006000400fa00204798003f
:10c480000040eb00004f78002a0037002e4090005b
:10c490000080fb00e20f50000b003200e30f500061
:10c4a00010003200e10f50001a003a0013c0b30030
:10c4b0002200200001e0200020e0200073d50700ca
:10c4c000004f78001b0037008041eb003200200055
:10c4d00001e0200020e020006cd50700004f78002c
:10c4e000140037008041eb003200200001e0200002
:10c4f00020e0200065d50700104798001e409000fe
:10c50000e34f50000a003a0010c0b300004f78001b
:10c51000080037008041eb001200200001e02000fd
:10c5200020e0200059d50700004f780001003700b7
:10c53000000000001e4078000004e000d3ff32003d
:10c540000080fa00000006000200fa005ff6070013
:10c55000000f78001e0078000080fa00000006003e
:10c560000600fa00004f7800114798002247980013
:10c57000334798004447980055479800de429000a2
:10c580004e429000be4190002e4190009e4090008f
:10c590001e407800ebe407000080fa00000006006f
:10c5a0000400fa00204798002e4090000004e000ac
:10c5b00003003200f1818000010f78000200370093
:10c5c000e1818000010f78001e0078000080fa00f1
:10c5d000000006001200fa00404f98007207980011
:10c5e000030f98000040eb00004f78000e00e800b9
:10c5f000a40020008001780062c0b3007e0090009b
:10c600008e089000f5d907000040eb00004f78003d
:10c61000080037001e80fb000000e8006e40780034
:10c620008000fb004e4890001e4040000eea0700cc
:10c630001e4fe8001e407800e94f5000f5ff36001d
:10c640000080fa00000006000200fa00a1e50700e1
:10c65000004f78001e4078000080fa0000000600bd
:10c660000200fa00004f78001e4078000004e0004d
:10c670000300320010c0b300a7e407000200370037
:10c680000040eb00a4e407000080fa000000060070
:10c690000400fa00204798000041eb00ae409000f3
:10c6a00010c0b3000d01070010c0b30051de070039
:10c6b000004f7800650007001e4078000080fa00f7
:10c6c000000006000400fa00204798003147980057
:10c6d0000041eb00ae4090000040eb00ff0007007f
:10c6e000004f78001e4078000004e0000300320094
:10c6f00000c0eb00004f7800040037003e4090007f
:10c7000028de0700004f7800500007001e40780028
:10c710000080fa00000006000a00fa00c0c3b3005f
:10c72000b8f0b7000e00e80063c0b30082c0b300e9
:10c73000810020007d0007002e4090000080fb005b
:10c74000c800dd001e4090000080fb00010070006a
:10c75000608288004e4090000080fb00c800dd0031
:10c760003e4090000080fb00010070007082880055
:10c770006e4090000080fb00c800dd005e4090002d
:10c780000080fb00010070008082880040838000f0
:10c790008080d100608280000080d1000080400055
:10c7a00040838800308380008080d10070828000c8
:10c7b0000080d1000080400030838800208380000a
:10c7c0008080d100808280000080d1000080400005
:10c7d0002083880010c0b300004f78001e4078000e
:10c7e0000080fa00000006000400fa00100798001c
:10c7f000c0c3b300b8f0b70070c0b300a4ff070017
:10c80000104798001e4090000080fb006800600008
:10c810000000e000080032001e00900063c0b3007a
:10c8200082c0b300610020004000070010c0b300c8
:10c83000004f7800020037000040eb00004f780006
:10c840001e4078000080fa00000006000000fa0098
:10c85000c8dd07000080fa00000006000400fa00ae
:10c86000204798002e4090000004e00008003200ad
:10c87000ae40900080c7b30080cf5000040032006b
:10c88000ae40900080c5b30080cf500003003a0056
:10c8900061828000010f7800210037000000000055
:10c8a0002e409000e14f500008003200ae40900052
:10c8b00090c7b30080cf500004003200ae4090001b
:10c8c00090c5b30080cf500003003a007182800011
:10c8d000010f780012003700000000002e40900089
:10c8e000e24f500008003200ae409000a0c7b300f5
:10c8f00080cf500004003200ae409000a0c5b300cd
:10c9000080cf500003003a0081828000010f780040
:10c9100003003700000000000080eb00000f7800eb
:10c920001e0078000080fa00000006000800fa00ef
:10c93000881f780010079800210798006247980028
:10c94000734798000040eb00004f78000040eb0078
:10c950001047980012c0b300ee40900010c0b30022
:10c960005e0007000f0037009e80fb007e409000b5
:10c970000080fb000000e900808f500002003a00b8
:10c9800010c0b300104798001e80fb009e0090006e
:10c99000008440001e40900096dd0700004c7800a7
:10c9a0001e4fe8007e4090009e40780080cf5000ef
:10c9b000edff3900a5ff07004f0478000080fa0062
:10c9c000000006000a00fa00c0c3b300b8f0b700c8
:10c9d00070c2b3002eff0700104798001e40900061
:10c9e0000080fb00680060000000e0001d003200d5
:10c9f0000e80e80063c0b30082c2b3008100200053
:10ca0000caff07003e4090000080fb00c800dd0028
:10ca10002e4090000080fb00010070009082880092
:10ca20005e4090000080fb00c800dd004e4090009a
:10ca30000080fb0001007000a08288007e40900012
:10ca40000080fb00c800dd006e4090000080fb000d
:10ca500001007000b082880010c0b300004f780061
:10ca6000020037000040eb00004f78001e407800c5
:10ca70000080fa00000006000400fa001007980089
:10ca8000c0c3b300b8f0b70070c2b30000ff070026
:10ca9000104798001e4090000080fb006800600076
:10caa0000000e000080032001e00900063c0b300e8
:10cab00082c2b300610020009cff070010c0b300d9
:10cac000004f7800020037000040eb00004f780074
:10cad0001e4078000080fa00000006000800fa00fe
:10cae00040479800514798006247980010c0b30033
:10caf000104798000ddd0700b8d0bf0029dd070002
:10cb00006e4090000004e000030032005e409000a0
:10cb10000074a000504798005e40900021dd07009f
:10cb2000004f78004e4090000004e0000700320003
:10cb3000b8d0bf000004a0002047980004dd070023
:10cb40002e40900017dd0700004f78001e4078004f
:10cb50000080fa00000006000a00fa00004f98006a
:10cb6000edfe0700308380000000e0000c003a007a
:10cb7000408380000000e00003003d00400b2000e7
:10cb8000200798003d003700408380000000e0004f
:10cb90003a0034000000eb0020079800370037000f
:10cba00040838000cf80de0027d1070005d1070039
:10cbb0006047980030838000cf80de0022d10700dc
:10cbc00000d10700704798006e4090008080fb0005
:10cbd0007e4090000080fb000001780011000900f9
:10cbe0008280d800004078000080fb00cf80de000b
:10cbf00015d10700008fbe001e0078009e00900037
:10cc000045d00700efd00700604798006e409000c5
:10cc10000080fb008000eb000ed1070012ee220026
:10cc20005326240068d10700008fbe0030838000a7
:10cc30000000e000070034001e0178009e01900013
:10cc400000002000412b2400d5cf0700008fbe003c
:10cc5000060037001e0178009e01900000002000b1
:10cc600071382400cecf0700008fbe001e00780070
:10cc70009e009000d3d00700200798002e0090005f
:10cc80000080fa00000006000200fa0000fc2c0000
:10cc9000a1062000d405070098dc0700c0c3b3003c
:10cca000b8f0b7008040eb0020c1b30085fe07005c
:10ccb000004f780000c5b300104798001e40900058
:10ccc0000034a000104798001e4090007040b30050
:10ccd000104798009e40900000c2b30079fe070004
:10cce000004f780050c0b30058f0b7001e407800e5
:10ccf0000004e0000300320000c0eb00004f7800a9
:10cd0000230037000040eb00104798009e40900041
:10cd100010c2b3006bfe07005970ef008040eb00bb
:10cd200020c2b30067fe07008040eb0030c2b300b2
:10cd300064fe070080c0b300104798001e409000ba
:10cd40000074a000104798009e40900040c2b300bd
:10cd50005cfe0700004f780030c0b3005af0b70007
:10cd600000c4b3001047980020c0b3005bf0b700c8
:10cd70009e40900050c2b30052fe0700004f780062
:10cd800001c8b30060c2b3004efe0700004f780038
:10cd90006830ef006630ef006430ef001e4078002e
:10cda0000080fa00000006000400fa002047980006
:10cdb000314798002e409000ea4f500002003600a4
:10cdc00010c0b300290037003e409000e44f5000ef
:10cdd0000200360010c0b30024003700ae409000bf
:10cde000400020000008dd00004f78001e34a00045
:10cdf0009e40780067cf70009e40780000c2b3006c
:10ce000030fe0700104798001e4090000004e0002c
:10ce10000200320000c0eb0014003700ae4090006a
:10ce20008205210001497800be40900030002000ba
:10ce30000008dd00004f78009e40780010c2b3006b
:10ce400020fe0700104798001e4090000004e000fc
:10ce50000200320000c0eb0004003700be4090002a
:10ce600092052100014978000040eb000080fa00a3
:10ce7000000006000400fa0020479800314798009f
:10ce80002e409000e64f50000200360010c0b30064
:10ce9000540037003e409000e34f5000020036003f
:10cea00010c0b3004f0037002e4090000004e00097
:10ceb0002e0032002e4090000040e90020479800ec
:10cec0002e409000e54f500008003a0058d0bf00b7
:10ced0000004e0000500320058d0bf00e54f5000cc
:10cee00002003e0010c0b3003e003700ae4090008c
:10cef000200020000008dd00004f78001e74a00014
:10cf00009e40780040c2b300eefd07001047980035
:10cf10001e4090000004e0000200320000c0eb0060
:10cf2000300037005ad0bf000004e0000b003a0088
:10cf300000c8b300004f78009e40780060c2b30084
:10cf4000e0fd0700104798001e4090000004e0003c
:10cf50000200320000c0eb00220037002e4090009b
:10cf60000040e8005af0b7000d00370000c8b300d9
:10cf7000004f78001e14a0009e40780060c2b300ed
:10cf8000d0fd0700104798001e4090000004e0000c
:10cf90000200320000c0eb00120037005a70ef00b0
:10cfa000be409000300020000008dd00004f7800f7
:10cfb0009e40780050c2b300c2fd070010479800a1
:10cfc0001e4090000004e0000200320000c0eb00b0
:10cfd000040037003e419000b105210082487800ee
:10cfe0000040eb000080fa00000006000000fa009c
:10cff0002c21ef0061098000f0fc2f000080600010
:10d000000040a00060098800d0222200400988006a
:10d0100005e8a900b1428000f0ff28000080600010
:10d0200000d0a000b04288007230ef007430ef00f2
:10d0300025e8a8002de1a80010c0b3000080fa0088
:10d04000000006000800fa00a1838000010f7800ac
:10d0500091838000110798009e00900000002c0032
:10d06000008060000000e00002003a00a183800020
:10d07000010f78001e0078008000eb00c001dd0089
:10d08000020020001e0090008000eb0000007100f4
:10d090008180710020079800310798002e009000d1
:10d0a000be0090000080fa00000006001800fa00a0
:10d0b00060032000303a8800213a8000f0f32f000e
:10d0c00000806000203a8800213a800000fe2f0096
:10d0d00000806000203a88004827ef0040a7a900a0
:10d0e0003200200080072000a109200033742000b6
:10d0f0008049780081497800824978001200200038
:10d10000600420007105200023742000804978000d
:10d11000814978008249780000000000113a8000bf
:10d12000000027008080600000002300808f5000f6
:10d13000faff3a0000000000113a800000022000cf
:10d14000008060000000e000fbff3200404e220043
:10d15000c03a880070002000d03a880059e7a80043
:10d1600000000000c13a8000000024000080600040
:10d170000000e000fbff32000e2eef001e2eef003d
:10d180002e2eef003e2eef004e2eef006e2eef0003
:10d190000040eb00004f78000040eb00004f7800ab
:10d1a000e4004700e0c828004301200001017800a6
:10d1b0001100200059da07003a70ef003770ef00d5
:10d1c0004670ef0000e62a00a10020008604070058
:10d1d0008171800000ff2f00008060008071880056
:10d1e000a171800000ff2f00008060009071880016
:10d1f0008100200040062000e0dc07000173800071
:10d20000f0f72f000080600000738800207380001a
:10d210000070a0001073880025e207003de10700c0
:10d220008042eb000042eb008001eb002201200075
:10d2300001012000f0c8280093e0070064004700c7
:10d240004101200092e20700640047008042eb00a9
:10d250000042eb008300200052002000410120002a
:10d2600089e0070064004700410120007de20700db
:10d27000640047008042eb000042eb008300200086
:10d28000b2042000410120007fe00700dff6070024
:10d2900020c3b300f3f9070046e507008041eb0027
:10d2a0000081eb0001e1200020e12000f7d1070020
:10d2b0004b00de000040780040f0b7002168a80075
:10d2c000082eef0000802100c0708800282eef009b
:10d2d000382eef00482eef00582eef00682eef009a
:10d2e0002268a80056e7070040c1b30078e60700af
:10d2f000100798001e0090000000e00008003a00af
:10d300000040eb002dfc070090858800a185880077
:10d31000a0c0b30029fc07007085880081858800c3
:10d320008042eb000042eb008301200082002000dd
:10d3300031012000f0c9280053e007000a0037003f
:10d34000b2f607008041eb003200200001e020002f
:10d3500020e02000cdd10700004f780000cc250050
:10d3600051012000200407001e4078000004e00066
:10d37000f3ff32008042eb000042eb00030120008b
:10d38000820020003101200020cb28003ee0070071
:10d39000007e26005103200013040700060037001a
:10d3a0008041eb003200200001e0200020e020005e
:10d3b000b6d10700004f78001e4078000004e0005e
:10d3c000f7ff3a00d3e007000040eb00a5f90700a3
:10d3d00006ff07000080fa00000006000200fa00c5
:10d3e000004f780040c6b3009e40780080cf5000c8
:10d3f0000300360040c6b300004f78000500370038
:10d400001e4078000004e00002003a0010c0b300a3
:10d41000004f78001e80fb00b08588000080fa0075
:10d42000000006000a00fa00400798004e00900035
:10d430008000eb0007cf0700008fbe0090858000c2
:10d44000a18580000001be001e0078009e009000b3
:10d4500096ce0700008fbe001e0078009e00900050
:10d46000d8ce07002007980031079800b1858000ca
:10d47000b08580002e019000be019000d9f7070012
:10d480000080fa00000006000000fa00a1e007009a
:10d490000080fa00000006000400fa000000eb0023
:10d4a000000f78000000eb00100798000000eb0070
:10d4b000000f7800140037000000eb001007980000
:10d4c0000d0037001e007800e500b90080007800ec
:10d4d0001e0090000080400080004000002d2300ce
:10d4e000008040008000eb00010878001e009000e2
:10d4f0000000e800100798001e009000e40f5000a4
:10d50000f0ff34001e0fe8001e007800e40f50000a
:10d51000e9ff34008041eb00e2c1b3008040eb0042
:10d520000040eb003dde0700e3c1b3000041eb002b
:10d530008040eb000040eb0038de0700e3c1b300a1
:10d54000e2c1b300e1c1b3000040eb0033de0700ed
:10d55000e3c1b300e2c1b3008040eb00e0c1b3001f
:10d560002ede07000080fa00000006000800fa0026
:10d57000000f7800110798002207980033079800e1
:10d580003e009000804178002e009000004178001d
:10d590001e009000804078001e0078000040780057
:10d5a0001ede07000080fa00000006000800fa00f6
:10d5b00050858000e600b900000f7800608580008b
:10d5c000e600b900100798009e00780066804000d1
:10d5d000200798001e009000660040003007980069
:10d5e0001e009000e30140001e027800630142002b
:10d5f0001e009000e30040001e027800630042001d
:10d60000daff0700f0848000e10f500023003200b1
:10d61000e10f500003003c000000e0000600320073
:10d6200070003700e20f500035003200e30f500069
:10d630004c0032006b0037009ad0bf000004e000bd
:10d64000050032009e0190002e0190009e00900087
:10d650001e007800c5ff07009bd0bf000004e0005b
:10d6600005003200be0190001e0178009e0090006f
:10d670001e007800bdff07009cd0bf000004e00042
:10d6800051003200be0190002e0190009e009000db
:10d690002e009000b5ff0700520037009ad0bf005f
:10d6a0000004e00005003200be0190002e01900051
:10d6b0009e0090002e009000acff07009bd0bf00a2
:10d6c0000004e000050032009e0190002e01900051
:10d6d0009e0090001e007800a4ff07009cd0bf00b1
:10d6e0000004e0003a003200be0190002e019000dc
:10d6f000be0090001e0078009cff07003900370034
:10d700009ad0bf000004e00005003200be01900086
:10d710002e019000be0090001e00780093ff0700cd
:10d720009bd0bf000004e00005003200be01900065
:10d730002e0190009e0090002e0090008bff0700ad
:10d740009cd0bf000004e00023003200be01900026
:10d750001e0178009e0090001e00780083ff0700e5
:10d76000200037009ad0bf000004e000050032001e
:10d77000be0190001e0178009e0090001e007800ff
:10d780007aff07009bd0bf000004e00005003200d4
:10d79000be0190002e019000be0090001e00780097
:10d7a00072ff07009cd0bf000004e0000c003200b4
:10d7b0009e0190002e0190009e0090001e007800b7
:10d7c0006aff07000700370000000000050037006f
:10d7d00000000000030037000000000001003700d7
:10d7e000000000005185800060858000e509b900d7
:10d7f000820078000080400080004000002d23005f
:10d800000080400011002000010878000080fa002c
:10d81000000006001600fa00000f9800110f980093
:10d82000220f98006000b800008fbe0020858000a5
:10d830009e08900000017800110009008200d800c5
:10d84000cf80de0000ce0700200798003107980047
:10d85000118580001e0890008088b9008000780043
:10d860003085800000017800110009008200d80096
:10d87000cf80de00f4cd07004007980051079800e4
:10d880009e0890002e089000808050001085800037
:10d8900000017800110009008200d80080007800a3
:10d8a0004085800000017800110009008200d80046
:10d8b000cf80de00e4cd0700600798007107980074
:10d8c0000e0890000000e00003003200e10f50005d
:10d8d0001200320022003700b0838000c183800034
:10d8e0004e019000de019000aecc0700b0838800ae
:10d8f000c1838800b0838000c18380002e01900026
:10d90000be019000a7cc07006e019000fe019000c0
:10d91000a4cc0700008fbe0011003700d083800028
:10d92000e18380004e019000de0190009dcc070055
:10d93000d0838800e1838800d0838000e183800069
:10d940002e019000be01900096cc07006e01900061
:10d95000fe01900093cc0700008fbe000000000085
:10d960001e0078009e0090000080fa000000060073
:10d970000400fa00000f780011079800400620000c
:10d980009e007800808f5000020034004006200086
:10d99000000f7800c0f92f009e007800808f5000a3
:10d9a00002003d00c0f92f00000f78001e0090001b
:10d9b0000000e00005003c001e0078000000e000d0
:10d9c000020035000000eb00000f78001e00900000
:10d9d0000000e000050035001e0078000000e000b7
:10d9e00002003c000000eb00000f78001e007800f1
:10d9f000cf80de0094cd07000080fa000000060012
:10da00001400fa00881f7800000f9800110f98008a
:10da10000040eb00e2fa0700000f780010c0b300ee
:10da2000dffa0700100798000e0890000000e000e1
:10da300001003d001e0fea001e0890000000e000fb
:10da400003003d001e0090000000ea00100798004f
:10da50001e0090001e004000cf00de00008040004d
:10da60000080d10080007800b084800000804000f9
:10da7000b08488000e0890001e0050002007980017
:10da80009e0890001e009000008050003007980013
:10da90005084800000017800ae0090000000eb0090
:10daa0005cff0700400798005107980060848000e1
:10dab00000017800be0090001000200055ff070014
:10dac00060079800710798004e009000de009000fb
:10dad0003ccd0700000078008e089000a4ff0700ee
:10dae00040079800510798006e009000fe009000db
:10daf00034cd0700000078009e0890009cff0700ce
:10db000060079800710798006e009000fe0090007a
:10db10002ccd0700000478004e009000de0090003d
:10db200028cd0700000078008800780095f90700ec
:10db3000ae00900051848800be009000618488008f
:10db40004f0478000080fa00000006000400fa008c
:10db5000889fbe00000f7800110798001085800094
:10db60006101b9007084800081848000020440005b
:10db70008384480033fd0700800f5400818f5c00d0
:10db800007003e009e0090001e0078009cff0700ea
:10db900025fa07002bfd0700708488008184880027
:10dba0004f04be000080fa00000006000000fa00ea
:10dbb0008a30ef008c30ef006000b800b08388003e
:10dbc000c18388006000b800d0838800e1838800aa
:10dbd00015fa07000080fa00000006000c00fa00a9
:10dbe000500798006000b800008fbe000000eb00f6
:10dbf0002007980020032000300798000f0037000e
:10dc00005e0090000040780094f8070040079800fc
:10dc10004e009000cf80de000bcd07000001be005b
:10dc20001e0078009e009000decb0700008fbe0033
:10dc30002e0090000000e80020079800ae00900041
:10dc40003e009000808f5000edff35002e009000c8
:10dc5000cf80de00fccc07000001be001e00780073
:10dc60009e00900091cc0700008fbe001e0078003f
:10dc70009e0090000080fa00000006000000fa00fc
:10dc800031fa07000080fa00000006000000fa00e8
:10dc90000040eb00a2f707000080fa000000060039
:10dca0000600fa0010c0b300004f78000000eb003f
:10dcb000100798000000eb00200798000000eb0020
:10dcc000100798001a0037000000eb0020079800aa
:10dcd000110037001e009000e500b90080007800b8
:10dce0002e0090000080400080004000002d2300a6
:10dcf00000804000100078000000e00003003a00bf
:10dd00000040eb00004f7800060037002e00900026
:10dd10000000e800200798002e009000e40f50005b
:10dd2000ecff34001e0090000000e800100798008f
:10dd30001e009000e40f5000e3ff34001e40780006
:10dd40000080fa00000006000000fa00f084800065
:10dd5000e10f50000e003200e10f500003003c00c4
:10dd60000000e0000600320015003700e20f50000e
:10dd70000b003200e30f50000d003200100037009e
:10dd8000608580000000e800608588000c00370096
:10dd9000508580000000e8005085880008003700aa
:10dda000608580000000e90060858800040037007d
:10ddb000508580000000e9005085880000000000c8
:10ddc0000080fa00000006000200fa00000f780050
:10ddd0001e01780030d822000090b900c388de0010
:10dde0004f90de00008050001e0f40001e007800a3
:10ddf000b9f607000080fa00000006000200fa00f1
:10de0000000f78001e01780030d822000090b90081
:10de1000c488de004f90de00008050001e0f10000e
:10de20001e00780060f707000080fa00000006007e
:10de30000200fa00004f780094ff0700b1122000a2
:10de4000810f500002003c0010c0b300004f78006a
:10de50001e4078000080fa00000006000000fa0072
:10de600086ff0700710c2000810f500010003c005d
:10de7000a100200080382100dbf2070040c6b3007b
:10de8000f8f607005185800060858000e509b9003b
:10de9000820078000080400080004000002d2300b8
:10dea00000804000210020000108780002003700b7
:10deb00020c3b300ebf607000080fa000000060064
:10dec0000400fa00100798001e00900043ff0700ae
:10ded0003ccc0700000f78001e007800f40f5000c3
:10dee000110034001e009000e20f500007003200c5
:10def000e40f5000090032000000e00018003a0072
:10df000010c0b3009bf0b7001600370010c0b3007c
:10df10009af0b700000000001200370010c0b300f4
:10df20009cf0b7000f0037001e009000e20f500079
:10df300006003200e40f5000060032000000e0004e
:10df400008003a009b70ef00060037009a70ef005f
:10df5000040037009c70ef00000000000100370053
:10df6000000000000080fa00000006000000fa0037
:10df70000000eb00d2ff070020002000d0ff0700c8
:10df800040002000ceff07000080fa0000000600dd
:10df90000000fa009bd0bf000004a2000004e000d3
:10dfa0000f003200a005200087ff0700f0848000ea
:10dfb000e300400030002800008060000000e00026
:10dfc00004003d000000e900c1ff2f000080700048
:10dfd0000000e800f0848800e4ff07003700370005
:10dfe0009bd0bf000004e000040032009ad0bf00c4
:10dff0000004a2000004e00030003a009bd0bf0003
:10e000000004e000160032009ad0bf000004e000d7
:10e01000130032009cd0bf000004a2000004e00006
:10e020000f003200a005200074ff0700f08480007c
:10e03000e500400030002800008060000000e000a3
:10e0400004003d000000e900c1ff2f0000807000c7
:10e050000000e800f0848800c4ff070017003700c4
:10e060009bd0bf000004e000140032009ad0bf0033
:10e070000004e000110032009cd0bf000004e0006a
:10e080000e003200400b20004fff0700f08480009c
:10e09000e600400030002800008060000000e00042
:10e0a00004003d000000e900c1ff2f000080700067
:10e0b0000000e800f0848800acff07000080fa0050
:10e0c000000006000000fa00881f780020002000f1
:10e0d000c2fe070018c0b30002002000a3322400d3
:10e0e000b6cb07000000e00001003c000044eb005c
:10e0f0000804e0000500320010c0b3009af0b70039
:10e1000010002000c0848800230037001000200089
:10e11000b2fe070018c0b30002002000a3322400a2
:10e12000a6cb07000000e00001003c000044eb002b
:10e130000804e0000700320021fe2f00e00120006b
:10e1400082fe070010c0b300a0f0b700ddff07009b
:10e150001100370030002000a0fe070018c0b300f7
:10e1600002002000a332240094cb07000000e0004e
:10e1700001003c000044eb000804e000060032000f
:10e18000e101200020fe2f0070fe070010c0b30048
:10e19000a0f0b700cbff0700a0d0bf000004e00054
:10e1a0000200320081fe0700a070ef004f047800eb
:10e1b0000080fa00000006000200fa000040eb00b8
:10e1c000004f780008003700e1012000e001200046
:10e1d0005efe07001e40780015ff0700004f780024
:10e1e000b8ff07001dff07001e4078000004a200d2
:10e1f0000004e000040032009ad0bf000004a20036
:10e200000004e000f0ff3a000080fa000000060081
:10e210000600fa00881f7800200798002e00900062
:10e22000cf80de0088cb0700a2702d0033ea2300e8
:10e230001ecb0700008fbe00dfff0700c0848000f8
:10e240000000e00003003200e10f50001a0032002d
:10e250001e003700bcfe07009630ef0005003700b7
:10e26000e1012000e001200038fe070095ff0700d3
:10e27000fafe0700b0848000cf80de0072cb07007a
:10e2800018c0b3001e0178009e01900049cb070022
:10e290000000e000010034000044eb000804e0004e
:10e2a000090032009ad0bf000004a2000004e00080
:10e2b000ebff3a00050037009630ef009830ef0092
:10e2c0000000000001003700000000004f0478004b
:10e2d0000080fa00000006000000fa0073fb07004f
:10e2e00020c3b300dff507008042eb000042eb00e3
:10e2f00093012000420120005100200020cd280081
:10e3000061dc0700803e200048ce070001dd0700e9
:10e3100061fc07004bfb0700708488008184880043
:10e320000600370011ff0700a0fc070018ff0700d8
:10e330001efe0700a0052000b5ff070058fe0700dd
:10e340000004a2000004e000f6ff3a0003003700da
:10e35000e101200020fe2f00fcfd070050fe070019
:10e360000004e000faff3a0000000000f3ff37006d
:020000040000fa
:10e37000d03200003200000080000000a210000037
:10e380000c000000820000001e00020000140000cb
:10e390000300030000020000761000002c000000c3
:10e3a00080000000bc10000014220000800000006b
:10e3b000001000007600000080000000ae10000099
:10e3c0000c0000008200000083c03a003f0ad70022
:10e3d000a33e2800003c0000ba100000020000002c
:08e3e0008000000000000000b5
:020000040000fa
:10e3e800f03fb1000180b10006003500ee030900de
:10e3f80000000000403fb1000180b100fbff3d007c
:10e408001000b000203fb000020035000080090075
:08e418000000000000000600f6
:020000040000fa
:0200000401f009
:04000800cfff000026
:020000040000fa
:0200000401f009
:04000c00fbff0000f6
:020000040000fa
:0200000401f009
:04001000baff000033
:020000040000fa
:0200000401f009
:040014007fff00006a
:020000040000fa
:0200000401f009
:04001800ffff0000e6
:020000040000fa
:0200000401f009
:04001c00dfff000002
:020000040000fa
:0200000401f009
:04002000ffff0000de
:00000001FF
